S01500004C4544436F6E74726F6C6C65722E7372656316
S113000077C0000096C0000093C0000091C00000BB
S11300108FC000008DC000008BC0000089C00000AC
S113002087C0000085C0000083C0000081C00000BC
S11300307FC000007DC000007BC0000079C00000CC
S113004077C0000075C0000073C0000071C00000DC
S11300506FC0000085C000006BC0000069C00000D4
S113006067C0000065C0000063C0000061C00000FC
S11300705FC000005DC000005BC0000059C000000C
S113008057C0000055C0000053C0000051C000001C
S11300904FC000004DC000004BC0000049C000002C
S11300A047C0000045C0000043C0000041C000003C
S11300B03FC000003DC000003BC0000039C000004C
S11300C037C0000035C0000033C0000031C000005C
S11300D02FC000002DC000002BC0000029C000006C
S11300E027C000006364696E6F70737578585B0095
S11300F011241FBECFEFD1E2DEBFCDBF00E00CBFA5
S113010012E0A0E0B2E0E6E9F1E100E00BBF02C0DA
S113011007900D92A43CB107D9F722E0A4ECB2E019
S113012001C01D92A03DB207E1F798D00C94C90814
S113013067CF1F920F920FB60F9211240000FECFCB
S113014084B5826084BD84B584BD84B5837084BD68
S113015085B5826085BD82E087BD80936E00089579
S11301601F920F920FB60F9211242F933F938F93E8
S11301709F938091C8029091C90201979093C902FC
S11301808093C802892B69F441984398459847980D
S11301904298449846988FEF90E09093C9028093D8
S11301A0C8022091C8023091C9028091C602909180
S11301B0C7022817390708F4419A2091C8023091E0
S11301C0C9028091C4029091C5022817390708F426
S11301D0439A2091C8023091C902809116029091ED
S11301E017022817390708F4459A2091C80230915C
S11301F0C90280911402909115022817390708F456
S1130200479A2091C8023091C902809112029091BC
S113021013022817390708F4429A2091C802309132
S1130220C90280911002909111022817390708F42D
S1130230449A2091C8023091C90280910E02909193
S11302400F022817390708F4469A9F918F913F911E
S11302502F910F900FBE0F901F901895CF93DF939F
S1130260CDB7DEB72C970FB6F894DEBF0FBECDBF67
S113027037D180E092E09093CD028093CC029093AA
S1130280CB028093CA028FEF87B95ADF78941C8619
S11302901B861A86198618861F821E821D821C825E
S11302A01B821A8219827E0123E0E20EF11C6E0188
S11302B035E0C30ED11C5E0187E0A80EB11C1E01FF
S11302C099E0290E311C2E012BE0420E511C88E1CD
S11302D0682E82E0782E04E610E09FE4892E92E0F6
S11302E0992E81E090E08C0F9D1F9F938F93FF9236
S11302F0EF92DF92CF92BF92AF923F922F925F9292
S11303004F927F926F928DD10FB6F894DEBF0FBEDD
S1130310CDBF069741F08091CA029091CB0225D1BE
S11303209F928F9208C089819A81009741F489E550
S113033092E09F938F9362D10F900F90D2CF2B8531
S11303403C852115310509F055C08330910541F4F0
S113035083E892E09F938F9351D10F900F902AC01E
S113036029853A852115310559F48130910519F40F
S11303702091C60220C00297E9F42091C4021BC058
S11303802130310559F48130910519F42091160278
S113039012C0029779F4209114020DC02230310565
S11303A049F4019739F4809112029091100220913E
S11303B00E0203C020E090E080E03A813F9339814F
S11303C03F931F922F931F929F931F928F938A851F
S11303D08F9389858F938C858F938B858F9382EAF6
S11303E092E09F938F930AD10FB6F894DEBF0FBEAD
S11303F0CDBF77CF2130310509F073CF29853A85F8
S11304002115310591F58130910571F48B819C8121
S1130410C29728F41092C7021092C60262CF1093BA
S1130420C7020093C6025DCF8230910529F48B8107
S11304309C81C297A8F40BC0039709F052CF8B811B
S11304409C81C29748F41092C7021092C60210927F
S1130450C5021092C40245CF1093C7020093C6028E
S11304601093C5020093C4023CCF21303105F1F44E
S11304708130910539F48B819C819093170280938C
S113048016022FCF8230910519F48B819C8109C00B
S1130490039709F026CF8B819C8190931702809358
S11304A0160290931502809314021BCF223031055B
S11304B009F017CF019709F014CF8F819885909395
S11304C01302809312028D819E8190931102809376
S11304D010028B819C8190930F0280930E0201CFB6
S11304E01092C50087E68093C4008DEF8093C0000E
S11304F0E1ECF0E0808188618083E2ECF0E086E06A
S1130500808380830895CF93C82F8A3011F48DE0BF
S1130510FADF8091C00085FFFCCFC093C60080E065
S113052090E0CF910895CF938091C00087FFFCCFD6
S11305308091C00084FD08C08091C00083FD04C088
S11305408091C00082FF05C08091C60080E090E0E9
S11305500AC0C091C6006091CC027091CD028C2F6C
S1130560D2DF8C2F90E0CF91089505D08091CA02FC
S11305709091CB0205C0FC0193819F7C93830895E5
S1130580CF93DF93EC012B8120FF33C026FF0AC0F9
S11305902F7B2B838E819F8101969F838E838A81FB
S11305A090E029C022FF0FC0E881F9818081082EE4
S11305B0000C990B009719F420622B831AC0319612
S11305C0F983E8830EC0EA85FB85199597FF09C076
S11305D02B81019611F080E201C080E1822B8B8394
S11305E008C02E813F812F5F3F4F3F832E83992781
S11305F002C08FEF9FEFDF91CF910895CF93DF93E8
S1130600CDB7DEB7AE014A5F5F4FFA0161917191D8
S1130610AF018091CC029091CD0216D0DF91CF91A1
S11306200895CF93DF93CDB7DEB7AE014A5F5F4F36
S1130630FA0161917191AF018091CA029091CB024C
S1130640B2D3DF91CF9108952F923F924F925F9250
S11306506F927F928F929F92AF92BF92CF92DF92CE
S1130660EF92FF920F931F93CF93DF93CDB7DEB733
S11306702B970FB6F894DEBF0FBECDBF6C017B0184
S11306808A01FC0117821682838181FFBFC1CE01DA
S113069001963C01F6019381F70193FD859193FF47
S11306A081917F01882309F4ADC1853239F493FD2A
S11306B0859193FF81917F01853221F4B60190E009
S11306C0B2D4E8CF912C212C312CFFE1F315D8F0D2
S11306D08B3279F038F4803279F08332A1F4232D0F
S11306E020611DC08D3261F0803369F4232D2160B7
S11306F016C0832D8260382EE32DE4603E2E2AC07E
S1130700F32DF8601DC037FC2DC020ED280F2A30D2
S113071040F08E32B9F436FC75C1232D2064322E9C
S113072019C036FE06C08AE0989E200D1124922E30
S113073011C0EAE02E9E200D1124222EF32DF0622A
S11307403F2E08C08C3621F4832D8068382E02C0D9
S1130750883641F4F70193FD859193FF81917F01E0
S11307608111B3CF982F9F7D9554933028F40C5F5B
S11307701F4F9FE399830DC0833631F0833771F0A7
S1130780833509F055C020C0F801808189830E5F4C
S11307901F4F88248394912C530112C02801F2E046
S11307A04F0E511CF801A080B18036FE03C0692DA4
S11307B070E002C06FEF7FEFC5012AD44C018201C3
S11307C0F32DFF773F2E15C0280122E0420E511C65
S11307D0F801A080B18036FE03C0692D70E002C02C
S11307E06FEF7FEFC50109D44C01F32DF0683F2E64
S11307F0820133FC19C0822D90E088169906A0F47A
S1130800B60180E290E00FD42A94F5CFF50137FCCD
S1130810859137FE81915F01B60190E004D42110E7
S11308202A9421E0821A91088114910479F7E1C095
S1130830843611F0893639F5F80137FE07C0608136
S11308407181828193810C5F1F4F08C06081718127
S1130850072E000C880B990B0E5F1F4FF32DFF76AC
S11308603F2E97FF09C090958095709561957F4FB5
S11308708F4F9F4FF0683F2E2AE030E0A30128D429
S1130880882E861844C0853731F4232D2F7EB22E4E
S11308902AE030E025C0932D997FB92E8F36C1F020
S11308A018F4883579F0AEC0803719F0883721F014
S11308B0A9C0E92FE061BE2EB4FE0DC0FB2DF4608B
S11308C0BF2E09C034FE0AC0292F2660B22E06C0EE
S11308D028E030E005C020E130E002C020E132E051
S11308E0F801B7FE07C060817181828193810C5F3A
S11308F01F4F06C06081718180E090E00E5F1F4F42
S1130900A301E6D3882E8618FB2DFF773F2E36FEF3
S11309100DC0232D2E7FA22E891458F434FE0BC053
S113092032FC09C0832D8E7EA82E05C0B82CA32CC2
S113093003C0B82C01C0B92CA4FE0FC0FE01E80D01
S1130940F11D8081803321F49A2D997EA92E09C04E
S1130950A2FE06C0B394B39404C08A2D867809F02D
S1130960B394A3FC10C0A0FE06C0B21480F4280CFB
S1130970922C9B180DC0B21458F4B60180E290E09A
S113098052D3B394F8CFB21418F42B1802C0982C95
S1130990212CA4FE0FC0B60180E390E044D3A2FE54
S11309A016C0A1FC03C088E790E002C088E590E08F
S11309B0B6010CC08A2D867851F0A1FE02C08BE2EC
S11309C001C080E2A7FC8DE2B60190E02CD389142B
S11309D030F4B60180E390E026D39A94F8CF8A9459
S11309E0F301E80DF11D8081B60190E01CD3811064
S11309F0F6CF222009F44ECEB60180E290E013D364
S1130A002A94F7CFF6018681978102C08FEF9FEF7A
S1130A102B960FB6F894DEBF0FBECDBFDF91CF91FA
S1130A201F910F91FF90EF90DF90CF90BF90AF9008
S1130A309F908F907F906F905F904F903F902F90FA
S1130A40089520FD09C0FC0123FD05C022FF02C05A
S1130A507383628351834083089544FD17C046FD28
S1130A6017C0AB01BC01DA01FB01AA0FBB1FEE1FCB
S1130A70FF1F1094D1F74A0F5B1F6E1F7F1FCB011E
S1130A80BA01660F771F881F991F09C033E001C0A0
S1130A9034E0660F771F881F991F3150D1F7620F1A
S1130AA0711D811D911D08950F931F93CF93DF93A3
S1130AB08C01C80165DDEC0197FD06C08BD2892B42
S1130AC0C1F7B801CE01EBD2CE01DF91CF911F91D6
S1130AD00F9108958F929F92AF92BF92EF92FF92DF
S1130AE00F931F93CF93DF938C01D62F7A01B22EED
S1130AF047DD9C0133272B32310531F02D3231058E
S1130B0059F48B2D8068B82ED15011F480E061C067
S1130B10C80136DD97FDFACFCB2DCD7F2B2D207369
S1130B20F9F48033E9F4AA24AA94AD0E09F43EC082
S1130B30C80126DD97FD3AC09C012F7D3327283557
S1130B40310541F4C264D25089F1C80119DD97FF1F
S1130B5007C02CC0B6FE02C0C26001C0C261DA2D5B
S1130B60812C912C540120ED280F283078F0C4FFFB
S1130B7003C0B80194D217C02A3040F0C6FFF9CFA1
S1130B802F7D3FEE320F3630A0F727504C2FC50192
S1130B90B40163DF4B015C01C260D15051F0C80164
S1130BA0EFDC97FFE0CFC1FD04C0B0CF812C912CC6
S1130BB05401C7FF08C0B094A09490948094811C01
S1130BC0911CA11CB11C2C2FB501A401C70139DF54
S1130BD081E0DF91CF911F910F91FF90EF90BF9033
S1130BE0AF909F908F9008955F926F927F928F92B3
S1130BF09F92AF92BF92CF92DF92EF92FF920F93A8
S1130C001F93CF93DF93CDB7DEB7A0970FB6F894B9
S1130C10DEBF0FBECDBF5C01962E7A01F9018E01B5
S1130C200F5F1F4F680180E2D8011D928A95E9F792
S1130C30D50113968C9080E090E0612C712C30E00B
S1130C4061E070E083FC259183FE21918F01522E97
S1130C50211103C080E090E090C02E3511F400977C
S1130C6051F1432F50E0481759073CF42D3559F101
S1130C702D3219F4772009F103C0772009F468C0F4
S1130C80452D469546954695D601A40FB11D452D93
S1130C9047708B0102C0000F111F4A95E2F7A801AB
S1130CA05C91452B4C93651459F0561410F45394ED
S1130CB0E7CF5A94E5CF31E004C07724739401C0A0
S1130CC0712C0196BFCF772019F08E8180628E83BC
S1130CD0311103C08824839417C0F6019E012F5D4F
S1130CE03F4F8081809581932E173F07D1F7F2CF34
S1130CF0E114F10429F0D7018C93F70131967F01B7
S1130D009A94812C9920E9F0C5013ADC97FD17C02B
S1130D10FC01FF2723E0F595E7952A95E1F7EC0D13
S1130D20FD1D208130E0AC014770552702C0359588
S1130D3027954A95E2F720FDDBCFB501B0D18110AC
S1130D4089CFE114F10411F0D7011C92C80115C038
S1130D50422F469546954695D601A40FB11D422FC4
S1130D6047708B0102C0000F111F4A95E2F7A801DA
S1130D705C91452B4C93622EA4CFA0960FB6F894A9
S1130D80DEBF0FBECDBFDF91CF911F910F91FF90BA
S1130D90EF90DF90CF90BF90AF909F908F907F9017
S1130DA06F905F9008955F926F927F928F929F925F
S1130DB0AF92BF92CF92DF92EF92FF920F931F9365
S1130DC0CF93DF936C01EB015A01FC011782168269
S1130DD0512CF601E380FE01E3FC8591E3FE819151
S1130DE0182FEF01882309F4E0C090E0F3D0892B99
S1130DF019F0C60159DEEDCF153241F4FE01E3FCD2
S1130E001591E3FE1191EF01153271F4C601B8DBBF
S1130E1097FDC9C0412F50E09C01332724173507A3
S1130E20C1F2B6013CD1C1C01A3239F4E3FC1591C8
S1130E30E3FE1191EF0101E001C000E0F12C20ED8F
S1130E40210F2A3078F402606F2D70E080E090E08A
S1130E5040E203DEF62EFE01E3FC1591E3FE119160
S1130E60EF01EDCF01FF03C0F11003C09EC0FF24CA
S1130E70FA94183619F01C3651F010C0FE01E3FC48
S1130E801591E3FE1191EF01183641F408600460F6
S1130E90FE01E3FC1591E3FE1191EF01112309F426
S1130EA084C0612F70E084EE90E09CD0892B09F41B
S1130EB07CC000FD07C0F50180809180C5010296C9
S1130EC05C0102C0812C912C1E3649F4F601468146
S1130ED0578160E070E0202FC401B3DD7ACF133670
S1130EE0A1F401FD02C0FF24F394C60149DB97FD80
S1130EF05AC08114910429F0F4018083C40101963D
S1130F004C01FA94F110F1CF4AC01B3551F49E0103
S1130F10A4016F2DC60168DEEC01892B09F03FC0E6
S1130F2039C0C601C1DD97FD3EC01F3649F128F422
S1130F30143621F1193639F125C0133771F01537FC
S1130F40E9F020C08114910429F0F4016082C40105
S1130F5001964C01FA94FF2059F0C60111DB3C01C3
S1130F6097FD06C037D0892B69F3B601C30197D02A
S1130F7081149104A1F0F401108211C0006203C035
S1130F80006101C00064202FA4016F2DC601A2DD01
S1130F90811105C0F6018381807329F406C000FD28
S1130FA018CF539416CF552019F0852D90E002C028
S1130FB08FEF9FEFDF91CF911F910F91FF90EF90F3
S1130FC0DF90CF90BF90AF909F908F907F906F9065
S1130FD05F9008959111DAC0803219F089508550DC
S1130FE0D0F70895FC010590061621F00020D9F7EA
S1130FF0C00108953197CF010895FC010590615017
S113100070400110D8F7809590958E0F9F1F08951A
S1131010FC016150704001900110D8F780959095C3
S11310208E0F9F1F08950F931F93CF93DF93FB01A0
S1131030238121FD03C08FEF9FEF2CC022FF16C038
S113104046815781248135814217530744F4A08196
S1131050B1819D012F5F3F4F318320838C93268183
S113106037812F5F3F4F3783268314C08B01EC01F8
S1131070FB010084F185E02D1995892BE1F6D80157
S113108016968D919C911797019617969C938E9323
S11310901697CE01DF91CF911F910F910895FB0117
S11310A0238120FF12C026FD10C08F3F3FEF93071E
S11310B061F082832F7D2064238326813781215030
S11310C0310937832683992708958FEF9FEF089579
S11310D0FA01AA27283051F1203181F1E8946F9365
S11310E06E7F6E5F7F4F8F4F9F4FAF4FB1E03ED00B
S11310F0B4E03CD0670F781F891F9A1FA11D680FA9
S1131100791F8A1F911DA11D6A0F711D811D911DDB
S1131110A11D20D009F468943F912AE0269F112450
S11311203019305D3193DEF6CF010895462F4770B4
S1131130405D4193B3E00FD0C9F7F6CF462F4F700F
S1131140405D4A3318F0495D31FD4052419302D06D
S1131150A9F7EACFB4E0A695979587957795679513
S1131160BA95C9F700976105710508959B01AC0113
S11311700A2E06945795479537952795BA95C9F73A
S1131180620F731F841F951FA01D08959927882738
S10911900895F894FFCF5E
S11311960000000300000000830293020000FE002A
S11311A6E6006E0032003200252A63253175252AB1
S11311B663252A63253175252A63252A6325337514
S11311C6252A63252A63253375252A63252A63255B
S11311D63375252A63252A63253175252A63005B21
S11311E64572726F725D0A0D005B4572726F725DB5
S11311F65B5468657265206973206E6F206C616D3F
S1131206702077686974206E756D62657220305D32
S11312160A0D005B4572726F725D5B43616E7420EA
S113122667657420626F7468206C616D70735D0A03
S11312360D005B2531755D5B2531755D5B25337569
S11312465D5B2533755D5B2533755D5B2531755DAA
S10712560A0D000079
S9030000FC
