
LEDController.elf:     file format elf32-avr

Sections:
Idx Name          Size      VMA       LMA       File off  Algn
  0 .data         000000c4  00800200  00001196  0000122a  2**0
                  CONTENTS, ALLOC, LOAD, DATA
  1 .text         00001196  00000000  00000000  00000094  2**1
                  CONTENTS, ALLOC, LOAD, READONLY, CODE
  2 .bss          0000000c  008002c4  008002c4  000012ee  2**0
                  ALLOC
  3 .comment      0000005c  00000000  00000000  000012ee  2**0
                  CONTENTS, READONLY
  4 .note.gnu.avr.deviceinfo 00000040  00000000  00000000  0000134c  2**2
                  CONTENTS, READONLY
  5 .debug_info   00000bbc  00000000  00000000  0000138c  2**0
                  CONTENTS, READONLY, DEBUGGING
  6 .debug_abbrev 00000b1a  00000000  00000000  00001f48  2**0
                  CONTENTS, READONLY, DEBUGGING
  7 .debug_line   000001f9  00000000  00000000  00002a62  2**0
                  CONTENTS, READONLY, DEBUGGING
  8 .debug_str    000003e6  00000000  00000000  00002c5b  2**0
                  CONTENTS, READONLY, DEBUGGING

Disassembly of section .text:

00000000 <__vectors>:
       0:	77 c0       	rjmp	.+238    	; 0xf0 <__ctors_end>
       2:	00 00       	nop
       4:	96 c0       	rjmp	.+300    	; 0x132 <__vector_1>
       6:	00 00       	nop
       8:	93 c0       	rjmp	.+294    	; 0x130 <__bad_interrupt>
       a:	00 00       	nop
       c:	91 c0       	rjmp	.+290    	; 0x130 <__bad_interrupt>
       e:	00 00       	nop
      10:	8f c0       	rjmp	.+286    	; 0x130 <__bad_interrupt>
      12:	00 00       	nop
      14:	8d c0       	rjmp	.+282    	; 0x130 <__bad_interrupt>
      16:	00 00       	nop
      18:	8b c0       	rjmp	.+278    	; 0x130 <__bad_interrupt>
      1a:	00 00       	nop
      1c:	89 c0       	rjmp	.+274    	; 0x130 <__bad_interrupt>
      1e:	00 00       	nop
      20:	87 c0       	rjmp	.+270    	; 0x130 <__bad_interrupt>
      22:	00 00       	nop
      24:	85 c0       	rjmp	.+266    	; 0x130 <__bad_interrupt>
      26:	00 00       	nop
      28:	83 c0       	rjmp	.+262    	; 0x130 <__bad_interrupt>
      2a:	00 00       	nop
      2c:	81 c0       	rjmp	.+258    	; 0x130 <__bad_interrupt>
      2e:	00 00       	nop
      30:	7f c0       	rjmp	.+254    	; 0x130 <__bad_interrupt>
      32:	00 00       	nop
      34:	7d c0       	rjmp	.+250    	; 0x130 <__bad_interrupt>
      36:	00 00       	nop
      38:	7b c0       	rjmp	.+246    	; 0x130 <__bad_interrupt>
      3a:	00 00       	nop
      3c:	79 c0       	rjmp	.+242    	; 0x130 <__bad_interrupt>
      3e:	00 00       	nop
      40:	77 c0       	rjmp	.+238    	; 0x130 <__bad_interrupt>
      42:	00 00       	nop
      44:	75 c0       	rjmp	.+234    	; 0x130 <__bad_interrupt>
      46:	00 00       	nop
      48:	73 c0       	rjmp	.+230    	; 0x130 <__bad_interrupt>
      4a:	00 00       	nop
      4c:	71 c0       	rjmp	.+226    	; 0x130 <__bad_interrupt>
      4e:	00 00       	nop
      50:	6f c0       	rjmp	.+222    	; 0x130 <__bad_interrupt>
      52:	00 00       	nop
      54:	85 c0       	rjmp	.+266    	; 0x160 <__vector_21>
      56:	00 00       	nop
      58:	6b c0       	rjmp	.+214    	; 0x130 <__bad_interrupt>
      5a:	00 00       	nop
      5c:	69 c0       	rjmp	.+210    	; 0x130 <__bad_interrupt>
      5e:	00 00       	nop
      60:	67 c0       	rjmp	.+206    	; 0x130 <__bad_interrupt>
      62:	00 00       	nop
      64:	65 c0       	rjmp	.+202    	; 0x130 <__bad_interrupt>
      66:	00 00       	nop
      68:	63 c0       	rjmp	.+198    	; 0x130 <__bad_interrupt>
      6a:	00 00       	nop
      6c:	61 c0       	rjmp	.+194    	; 0x130 <__bad_interrupt>
      6e:	00 00       	nop
      70:	5f c0       	rjmp	.+190    	; 0x130 <__bad_interrupt>
      72:	00 00       	nop
      74:	5d c0       	rjmp	.+186    	; 0x130 <__bad_interrupt>
      76:	00 00       	nop
      78:	5b c0       	rjmp	.+182    	; 0x130 <__bad_interrupt>
      7a:	00 00       	nop
      7c:	59 c0       	rjmp	.+178    	; 0x130 <__bad_interrupt>
      7e:	00 00       	nop
      80:	57 c0       	rjmp	.+174    	; 0x130 <__bad_interrupt>
      82:	00 00       	nop
      84:	55 c0       	rjmp	.+170    	; 0x130 <__bad_interrupt>
      86:	00 00       	nop
      88:	53 c0       	rjmp	.+166    	; 0x130 <__bad_interrupt>
      8a:	00 00       	nop
      8c:	51 c0       	rjmp	.+162    	; 0x130 <__bad_interrupt>
      8e:	00 00       	nop
      90:	4f c0       	rjmp	.+158    	; 0x130 <__bad_interrupt>
      92:	00 00       	nop
      94:	4d c0       	rjmp	.+154    	; 0x130 <__bad_interrupt>
      96:	00 00       	nop
      98:	4b c0       	rjmp	.+150    	; 0x130 <__bad_interrupt>
      9a:	00 00       	nop
      9c:	49 c0       	rjmp	.+146    	; 0x130 <__bad_interrupt>
      9e:	00 00       	nop
      a0:	47 c0       	rjmp	.+142    	; 0x130 <__bad_interrupt>
      a2:	00 00       	nop
      a4:	45 c0       	rjmp	.+138    	; 0x130 <__bad_interrupt>
      a6:	00 00       	nop
      a8:	43 c0       	rjmp	.+134    	; 0x130 <__bad_interrupt>
      aa:	00 00       	nop
      ac:	41 c0       	rjmp	.+130    	; 0x130 <__bad_interrupt>
      ae:	00 00       	nop
      b0:	3f c0       	rjmp	.+126    	; 0x130 <__bad_interrupt>
      b2:	00 00       	nop
      b4:	3d c0       	rjmp	.+122    	; 0x130 <__bad_interrupt>
      b6:	00 00       	nop
      b8:	3b c0       	rjmp	.+118    	; 0x130 <__bad_interrupt>
      ba:	00 00       	nop
      bc:	39 c0       	rjmp	.+114    	; 0x130 <__bad_interrupt>
      be:	00 00       	nop
      c0:	37 c0       	rjmp	.+110    	; 0x130 <__bad_interrupt>
      c2:	00 00       	nop
      c4:	35 c0       	rjmp	.+106    	; 0x130 <__bad_interrupt>
      c6:	00 00       	nop
      c8:	33 c0       	rjmp	.+102    	; 0x130 <__bad_interrupt>
      ca:	00 00       	nop
      cc:	31 c0       	rjmp	.+98     	; 0x130 <__bad_interrupt>
      ce:	00 00       	nop
      d0:	2f c0       	rjmp	.+94     	; 0x130 <__bad_interrupt>
      d2:	00 00       	nop
      d4:	2d c0       	rjmp	.+90     	; 0x130 <__bad_interrupt>
      d6:	00 00       	nop
      d8:	2b c0       	rjmp	.+86     	; 0x130 <__bad_interrupt>
      da:	00 00       	nop
      dc:	29 c0       	rjmp	.+82     	; 0x130 <__bad_interrupt>
      de:	00 00       	nop
      e0:	27 c0       	rjmp	.+78     	; 0x130 <__bad_interrupt>
	...

000000e4 <__trampolines_end>:
      e4:	63 64       	ori	r22, 0x43	; 67
      e6:	69 6e       	ori	r22, 0xE9	; 233
      e8:	6f 70       	andi	r22, 0x0F	; 15
      ea:	73 75       	andi	r23, 0x53	; 83
      ec:	78 58       	subi	r23, 0x88	; 136
      ee:	5b 00       	.word	0x005b	; ????

000000f0 <__ctors_end>:
      f0:	11 24       	eor	r1, r1
      f2:	1f be       	out	0x3f, r1	; 63
      f4:	cf ef       	ldi	r28, 0xFF	; 255
      f6:	d1 e2       	ldi	r29, 0x21	; 33
      f8:	de bf       	out	0x3e, r29	; 62
      fa:	cd bf       	out	0x3d, r28	; 61
      fc:	00 e0       	ldi	r16, 0x00	; 0
      fe:	0c bf       	out	0x3c, r16	; 60

00000100 <__do_copy_data>:
     100:	12 e0       	ldi	r17, 0x02	; 2
     102:	a0 e0       	ldi	r26, 0x00	; 0
     104:	b2 e0       	ldi	r27, 0x02	; 2
     106:	e6 e9       	ldi	r30, 0x96	; 150
     108:	f1 e1       	ldi	r31, 0x11	; 17
     10a:	00 e0       	ldi	r16, 0x00	; 0
     10c:	0b bf       	out	0x3b, r16	; 59
     10e:	02 c0       	rjmp	.+4      	; 0x114 <__do_copy_data+0x14>
     110:	07 90       	elpm	r0, Z+
     112:	0d 92       	st	X+, r0
     114:	a4 3c       	cpi	r26, 0xC4	; 196
     116:	b1 07       	cpc	r27, r17
     118:	d9 f7       	brne	.-10     	; 0x110 <__do_copy_data+0x10>

0000011a <__do_clear_bss>:
     11a:	22 e0       	ldi	r18, 0x02	; 2
     11c:	a4 ec       	ldi	r26, 0xC4	; 196
     11e:	b2 e0       	ldi	r27, 0x02	; 2
     120:	01 c0       	rjmp	.+2      	; 0x124 <.do_clear_bss_start>

00000122 <.do_clear_bss_loop>:
     122:	1d 92       	st	X+, r1

00000124 <.do_clear_bss_start>:
     124:	a0 3d       	cpi	r26, 0xD0	; 208
     126:	b2 07       	cpc	r27, r18
     128:	e1 f7       	brne	.-8      	; 0x122 <.do_clear_bss_loop>
     12a:	98 d0       	rcall	.+304    	; 0x25c <main>
     12c:	0c 94 c9 08 	jmp	0x1192	; 0x1192 <_exit>

00000130 <__bad_interrupt>:
     130:	67 cf       	rjmp	.-306    	; 0x0 <__vectors>

00000132 <__vector_1>:
     132:	1f 92       	push	r1
     134:	0f 92       	push	r0
     136:	0f b6       	in	r0, 0x3f	; 63
     138:	0f 92       	push	r0
     13a:	11 24       	eor	r1, r1
     13c:	00 00       	nop
     13e:	fe cf       	rjmp	.-4      	; 0x13c <__vector_1+0xa>

00000140 <timer0_init>:
     140:	84 b5       	in	r24, 0x24	; 36
     142:	82 60       	ori	r24, 0x02	; 2
     144:	84 bd       	out	0x24, r24	; 36
     146:	84 b5       	in	r24, 0x24	; 36
     148:	84 bd       	out	0x24, r24	; 36
     14a:	84 b5       	in	r24, 0x24	; 36
     14c:	83 70       	andi	r24, 0x03	; 3
     14e:	84 bd       	out	0x24, r24	; 36
     150:	85 b5       	in	r24, 0x25	; 37
     152:	82 60       	ori	r24, 0x02	; 2
     154:	85 bd       	out	0x25, r24	; 37
     156:	82 e0       	ldi	r24, 0x02	; 2
     158:	87 bd       	out	0x27, r24	; 39
     15a:	80 93 6e 00 	sts	0x006E, r24	; 0x80006e <__TEXT_REGION_LENGTH__+0x70006e>
     15e:	08 95       	ret

00000160 <__vector_21>:
     160:	1f 92       	push	r1
     162:	0f 92       	push	r0
     164:	0f b6       	in	r0, 0x3f	; 63
     166:	0f 92       	push	r0
     168:	11 24       	eor	r1, r1
     16a:	2f 93       	push	r18
     16c:	3f 93       	push	r19
     16e:	8f 93       	push	r24
     170:	9f 93       	push	r25
     172:	80 91 c8 02 	lds	r24, 0x02C8	; 0x8002c8 <counter>
     176:	90 91 c9 02 	lds	r25, 0x02C9	; 0x8002c9 <counter+0x1>
     17a:	01 97       	sbiw	r24, 0x01	; 1
     17c:	90 93 c9 02 	sts	0x02C9, r25	; 0x8002c9 <counter+0x1>
     180:	80 93 c8 02 	sts	0x02C8, r24	; 0x8002c8 <counter>
     184:	89 2b       	or	r24, r25
     186:	69 f4       	brne	.+26     	; 0x1a2 <__vector_21+0x42>
     188:	41 98       	cbi	0x08, 1	; 8
     18a:	43 98       	cbi	0x08, 3	; 8
     18c:	45 98       	cbi	0x08, 5	; 8
     18e:	47 98       	cbi	0x08, 7	; 8
     190:	42 98       	cbi	0x08, 2	; 8
     192:	44 98       	cbi	0x08, 4	; 8
     194:	46 98       	cbi	0x08, 6	; 8
     196:	8f ef       	ldi	r24, 0xFF	; 255
     198:	90 e0       	ldi	r25, 0x00	; 0
     19a:	90 93 c9 02 	sts	0x02C9, r25	; 0x8002c9 <counter+0x1>
     19e:	80 93 c8 02 	sts	0x02C8, r24	; 0x8002c8 <counter>
     1a2:	20 91 c8 02 	lds	r18, 0x02C8	; 0x8002c8 <counter>
     1a6:	30 91 c9 02 	lds	r19, 0x02C9	; 0x8002c9 <counter+0x1>
     1aa:	80 91 c6 02 	lds	r24, 0x02C6	; 0x8002c6 <pwm1>
     1ae:	90 91 c7 02 	lds	r25, 0x02C7	; 0x8002c7 <pwm1+0x1>
     1b2:	28 17       	cp	r18, r24
     1b4:	39 07       	cpc	r19, r25
     1b6:	08 f4       	brcc	.+2      	; 0x1ba <__vector_21+0x5a>
     1b8:	41 9a       	sbi	0x08, 1	; 8
     1ba:	20 91 c8 02 	lds	r18, 0x02C8	; 0x8002c8 <counter>
     1be:	30 91 c9 02 	lds	r19, 0x02C9	; 0x8002c9 <counter+0x1>
     1c2:	80 91 c4 02 	lds	r24, 0x02C4	; 0x8002c4 <__data_end>
     1c6:	90 91 c5 02 	lds	r25, 0x02C5	; 0x8002c5 <__data_end+0x1>
     1ca:	28 17       	cp	r18, r24
     1cc:	39 07       	cpc	r19, r25
     1ce:	08 f4       	brcc	.+2      	; 0x1d2 <__vector_21+0x72>
     1d0:	43 9a       	sbi	0x08, 3	; 8
     1d2:	20 91 c8 02 	lds	r18, 0x02C8	; 0x8002c8 <counter>
     1d6:	30 91 c9 02 	lds	r19, 0x02C9	; 0x8002c9 <counter+0x1>
     1da:	80 91 16 02 	lds	r24, 0x0216	; 0x800216 <pwm3>
     1de:	90 91 17 02 	lds	r25, 0x0217	; 0x800217 <pwm3+0x1>
     1e2:	28 17       	cp	r18, r24
     1e4:	39 07       	cpc	r19, r25
     1e6:	08 f4       	brcc	.+2      	; 0x1ea <__vector_21+0x8a>
     1e8:	45 9a       	sbi	0x08, 5	; 8
     1ea:	20 91 c8 02 	lds	r18, 0x02C8	; 0x8002c8 <counter>
     1ee:	30 91 c9 02 	lds	r19, 0x02C9	; 0x8002c9 <counter+0x1>
     1f2:	80 91 14 02 	lds	r24, 0x0214	; 0x800214 <pwm4>
     1f6:	90 91 15 02 	lds	r25, 0x0215	; 0x800215 <pwm4+0x1>
     1fa:	28 17       	cp	r18, r24
     1fc:	39 07       	cpc	r19, r25
     1fe:	08 f4       	brcc	.+2      	; 0x202 <__vector_21+0xa2>
     200:	47 9a       	sbi	0x08, 7	; 8
     202:	20 91 c8 02 	lds	r18, 0x02C8	; 0x8002c8 <counter>
     206:	30 91 c9 02 	lds	r19, 0x02C9	; 0x8002c9 <counter+0x1>
     20a:	80 91 12 02 	lds	r24, 0x0212	; 0x800212 <pwm5>
     20e:	90 91 13 02 	lds	r25, 0x0213	; 0x800213 <pwm5+0x1>
     212:	28 17       	cp	r18, r24
     214:	39 07       	cpc	r19, r25
     216:	08 f4       	brcc	.+2      	; 0x21a <__vector_21+0xba>
     218:	42 9a       	sbi	0x08, 2	; 8
     21a:	20 91 c8 02 	lds	r18, 0x02C8	; 0x8002c8 <counter>
     21e:	30 91 c9 02 	lds	r19, 0x02C9	; 0x8002c9 <counter+0x1>
     222:	80 91 10 02 	lds	r24, 0x0210	; 0x800210 <pwm6>
     226:	90 91 11 02 	lds	r25, 0x0211	; 0x800211 <pwm6+0x1>
     22a:	28 17       	cp	r18, r24
     22c:	39 07       	cpc	r19, r25
     22e:	08 f4       	brcc	.+2      	; 0x232 <__vector_21+0xd2>
     230:	44 9a       	sbi	0x08, 4	; 8
     232:	20 91 c8 02 	lds	r18, 0x02C8	; 0x8002c8 <counter>
     236:	30 91 c9 02 	lds	r19, 0x02C9	; 0x8002c9 <counter+0x1>
     23a:	80 91 0e 02 	lds	r24, 0x020E	; 0x80020e <pwm7>
     23e:	90 91 0f 02 	lds	r25, 0x020F	; 0x80020f <pwm7+0x1>
     242:	28 17       	cp	r18, r24
     244:	39 07       	cpc	r19, r25
     246:	08 f4       	brcc	.+2      	; 0x24a <__vector_21+0xea>
     248:	46 9a       	sbi	0x08, 6	; 8
     24a:	9f 91       	pop	r25
     24c:	8f 91       	pop	r24
     24e:	3f 91       	pop	r19
     250:	2f 91       	pop	r18
     252:	0f 90       	pop	r0
     254:	0f be       	out	0x3f, r0	; 63
     256:	0f 90       	pop	r0
     258:	1f 90       	pop	r1
     25a:	18 95       	reti

0000025c <main>:
     25c:	cf 93       	push	r28
     25e:	df 93       	push	r29
     260:	cd b7       	in	r28, 0x3d	; 61
     262:	de b7       	in	r29, 0x3e	; 62
     264:	2c 97       	sbiw	r28, 0x0c	; 12
     266:	0f b6       	in	r0, 0x3f	; 63
     268:	f8 94       	cli
     26a:	de bf       	out	0x3e, r29	; 62
     26c:	0f be       	out	0x3f, r0	; 63
     26e:	cd bf       	out	0x3d, r28	; 61
     270:	37 d1       	rcall	.+622    	; 0x4e0 <uart_init>
     272:	80 e0       	ldi	r24, 0x00	; 0
     274:	92 e0       	ldi	r25, 0x02	; 2
     276:	90 93 cd 02 	sts	0x02CD, r25	; 0x8002cd <__iob+0x3>
     27a:	80 93 cc 02 	sts	0x02CC, r24	; 0x8002cc <__iob+0x2>
     27e:	90 93 cb 02 	sts	0x02CB, r25	; 0x8002cb <__iob+0x1>
     282:	80 93 ca 02 	sts	0x02CA, r24	; 0x8002ca <__iob>
     286:	8f ef       	ldi	r24, 0xFF	; 255
     288:	87 b9       	out	0x07, r24	; 7
     28a:	5a df       	rcall	.-332    	; 0x140 <timer0_init>
     28c:	78 94       	sei
     28e:	1c 86       	std	Y+12, r1	; 0x0c
     290:	1b 86       	std	Y+11, r1	; 0x0b
     292:	1a 86       	std	Y+10, r1	; 0x0a
     294:	19 86       	std	Y+9, r1	; 0x09
     296:	18 86       	std	Y+8, r1	; 0x08
     298:	1f 82       	std	Y+7, r1	; 0x07
     29a:	1e 82       	std	Y+6, r1	; 0x06
     29c:	1d 82       	std	Y+5, r1	; 0x05
     29e:	1c 82       	std	Y+4, r1	; 0x04
     2a0:	1b 82       	std	Y+3, r1	; 0x03
     2a2:	1a 82       	std	Y+2, r1	; 0x02
     2a4:	19 82       	std	Y+1, r1	; 0x01
     2a6:	7e 01       	movw	r14, r28
     2a8:	23 e0       	ldi	r18, 0x03	; 3
     2aa:	e2 0e       	add	r14, r18
     2ac:	f1 1c       	adc	r15, r1
     2ae:	6e 01       	movw	r12, r28
     2b0:	35 e0       	ldi	r19, 0x05	; 5
     2b2:	c3 0e       	add	r12, r19
     2b4:	d1 1c       	adc	r13, r1
     2b6:	5e 01       	movw	r10, r28
     2b8:	87 e0       	ldi	r24, 0x07	; 7
     2ba:	a8 0e       	add	r10, r24
     2bc:	b1 1c       	adc	r11, r1
     2be:	1e 01       	movw	r2, r28
     2c0:	99 e0       	ldi	r25, 0x09	; 9
     2c2:	29 0e       	add	r2, r25
     2c4:	31 1c       	adc	r3, r1
     2c6:	2e 01       	movw	r4, r28
     2c8:	2b e0       	ldi	r18, 0x0B	; 11
     2ca:	42 0e       	add	r4, r18
     2cc:	51 1c       	adc	r5, r1
     2ce:	88 e1       	ldi	r24, 0x18	; 24
     2d0:	68 2e       	mov	r6, r24
     2d2:	82 e0       	ldi	r24, 0x02	; 2
     2d4:	78 2e       	mov	r7, r24
     2d6:	04 e6       	ldi	r16, 0x64	; 100
     2d8:	10 e0       	ldi	r17, 0x00	; 0
     2da:	9f e4       	ldi	r25, 0x4F	; 79
     2dc:	89 2e       	mov	r8, r25
     2de:	92 e0       	ldi	r25, 0x02	; 2
     2e0:	99 2e       	mov	r9, r25
     2e2:	81 e0       	ldi	r24, 0x01	; 1
     2e4:	90 e0       	ldi	r25, 0x00	; 0
     2e6:	8c 0f       	add	r24, r28
     2e8:	9d 1f       	adc	r25, r29
     2ea:	9f 93       	push	r25
     2ec:	8f 93       	push	r24
     2ee:	ff 92       	push	r15
     2f0:	ef 92       	push	r14
     2f2:	df 92       	push	r13
     2f4:	cf 92       	push	r12
     2f6:	bf 92       	push	r11
     2f8:	af 92       	push	r10
     2fa:	3f 92       	push	r3
     2fc:	2f 92       	push	r2
     2fe:	5f 92       	push	r5
     300:	4f 92       	push	r4
     302:	7f 92       	push	r7
     304:	6f 92       	push	r6
     306:	8d d1       	rcall	.+794    	; 0x622 <scanf>
     308:	0f b6       	in	r0, 0x3f	; 63
     30a:	f8 94       	cli
     30c:	de bf       	out	0x3e, r29	; 62
     30e:	0f be       	out	0x3f, r0	; 63
     310:	cd bf       	out	0x3d, r28	; 61
     312:	06 97       	sbiw	r24, 0x06	; 6
     314:	41 f0       	breq	.+16     	; 0x326 <main+0xca>
     316:	80 91 ca 02 	lds	r24, 0x02CA	; 0x8002ca <__iob>
     31a:	90 91 cb 02 	lds	r25, 0x02CB	; 0x8002cb <__iob+0x1>
     31e:	25 d1       	rcall	.+586    	; 0x56a <uart_error>
     320:	9f 92       	push	r9
     322:	8f 92       	push	r8
     324:	08 c0       	rjmp	.+16     	; 0x336 <main+0xda>
     326:	89 81       	ldd	r24, Y+1	; 0x01
     328:	9a 81       	ldd	r25, Y+2	; 0x02
     32a:	00 97       	sbiw	r24, 0x00	; 0
     32c:	41 f4       	brne	.+16     	; 0x33e <main+0xe2>
     32e:	89 e5       	ldi	r24, 0x59	; 89
     330:	92 e0       	ldi	r25, 0x02	; 2
     332:	9f 93       	push	r25
     334:	8f 93       	push	r24
     336:	62 d1       	rcall	.+708    	; 0x5fc <printf>
     338:	0f 90       	pop	r0
     33a:	0f 90       	pop	r0
     33c:	d2 cf       	rjmp	.-92     	; 0x2e2 <main+0x86>
     33e:	2b 85       	ldd	r18, Y+11	; 0x0b
     340:	3c 85       	ldd	r19, Y+12	; 0x0c
     342:	21 15       	cp	r18, r1
     344:	31 05       	cpc	r19, r1
     346:	09 f0       	breq	.+2      	; 0x34a <main+0xee>
     348:	55 c0       	rjmp	.+170    	; 0x3f4 <main+0x198>
     34a:	83 30       	cpi	r24, 0x03	; 3
     34c:	91 05       	cpc	r25, r1
     34e:	41 f4       	brne	.+16     	; 0x360 <main+0x104>
     350:	83 e8       	ldi	r24, 0x83	; 131
     352:	92 e0       	ldi	r25, 0x02	; 2
     354:	9f 93       	push	r25
     356:	8f 93       	push	r24
     358:	51 d1       	rcall	.+674    	; 0x5fc <printf>
     35a:	0f 90       	pop	r0
     35c:	0f 90       	pop	r0
     35e:	2a c0       	rjmp	.+84     	; 0x3b4 <main+0x158>
     360:	29 85       	ldd	r18, Y+9	; 0x09
     362:	3a 85       	ldd	r19, Y+10	; 0x0a
     364:	21 15       	cp	r18, r1
     366:	31 05       	cpc	r19, r1
     368:	59 f4       	brne	.+22     	; 0x380 <main+0x124>
     36a:	81 30       	cpi	r24, 0x01	; 1
     36c:	91 05       	cpc	r25, r1
     36e:	19 f4       	brne	.+6      	; 0x376 <main+0x11a>
     370:	20 91 c6 02 	lds	r18, 0x02C6	; 0x8002c6 <pwm1>
     374:	20 c0       	rjmp	.+64     	; 0x3b6 <main+0x15a>
     376:	02 97       	sbiw	r24, 0x02	; 2
     378:	e9 f4       	brne	.+58     	; 0x3b4 <main+0x158>
     37a:	20 91 c4 02 	lds	r18, 0x02C4	; 0x8002c4 <__data_end>
     37e:	1b c0       	rjmp	.+54     	; 0x3b6 <main+0x15a>
     380:	21 30       	cpi	r18, 0x01	; 1
     382:	31 05       	cpc	r19, r1
     384:	59 f4       	brne	.+22     	; 0x39c <main+0x140>
     386:	81 30       	cpi	r24, 0x01	; 1
     388:	91 05       	cpc	r25, r1
     38a:	19 f4       	brne	.+6      	; 0x392 <main+0x136>
     38c:	20 91 16 02 	lds	r18, 0x0216	; 0x800216 <pwm3>
     390:	12 c0       	rjmp	.+36     	; 0x3b6 <main+0x15a>
     392:	02 97       	sbiw	r24, 0x02	; 2
     394:	79 f4       	brne	.+30     	; 0x3b4 <main+0x158>
     396:	20 91 14 02 	lds	r18, 0x0214	; 0x800214 <pwm4>
     39a:	0d c0       	rjmp	.+26     	; 0x3b6 <main+0x15a>
     39c:	22 30       	cpi	r18, 0x02	; 2
     39e:	31 05       	cpc	r19, r1
     3a0:	49 f4       	brne	.+18     	; 0x3b4 <main+0x158>
     3a2:	01 97       	sbiw	r24, 0x01	; 1
     3a4:	39 f4       	brne	.+14     	; 0x3b4 <main+0x158>
     3a6:	80 91 12 02 	lds	r24, 0x0212	; 0x800212 <pwm5>
     3aa:	90 91 10 02 	lds	r25, 0x0210	; 0x800210 <pwm6>
     3ae:	20 91 0e 02 	lds	r18, 0x020E	; 0x80020e <pwm7>
     3b2:	03 c0       	rjmp	.+6      	; 0x3ba <main+0x15e>
     3b4:	20 e0       	ldi	r18, 0x00	; 0
     3b6:	90 e0       	ldi	r25, 0x00	; 0
     3b8:	80 e0       	ldi	r24, 0x00	; 0
     3ba:	3a 81       	ldd	r19, Y+2	; 0x02
     3bc:	3f 93       	push	r19
     3be:	39 81       	ldd	r19, Y+1	; 0x01
     3c0:	3f 93       	push	r19
     3c2:	1f 92       	push	r1
     3c4:	2f 93       	push	r18
     3c6:	1f 92       	push	r1
     3c8:	9f 93       	push	r25
     3ca:	1f 92       	push	r1
     3cc:	8f 93       	push	r24
     3ce:	8a 85       	ldd	r24, Y+10	; 0x0a
     3d0:	8f 93       	push	r24
     3d2:	89 85       	ldd	r24, Y+9	; 0x09
     3d4:	8f 93       	push	r24
     3d6:	8c 85       	ldd	r24, Y+12	; 0x0c
     3d8:	8f 93       	push	r24
     3da:	8b 85       	ldd	r24, Y+11	; 0x0b
     3dc:	8f 93       	push	r24
     3de:	82 ea       	ldi	r24, 0xA2	; 162
     3e0:	92 e0       	ldi	r25, 0x02	; 2
     3e2:	9f 93       	push	r25
     3e4:	8f 93       	push	r24
     3e6:	0a d1       	rcall	.+532    	; 0x5fc <printf>
     3e8:	0f b6       	in	r0, 0x3f	; 63
     3ea:	f8 94       	cli
     3ec:	de bf       	out	0x3e, r29	; 62
     3ee:	0f be       	out	0x3f, r0	; 63
     3f0:	cd bf       	out	0x3d, r28	; 61
     3f2:	77 cf       	rjmp	.-274    	; 0x2e2 <main+0x86>
     3f4:	21 30       	cpi	r18, 0x01	; 1
     3f6:	31 05       	cpc	r19, r1
     3f8:	09 f0       	breq	.+2      	; 0x3fc <main+0x1a0>
     3fa:	73 cf       	rjmp	.-282    	; 0x2e2 <main+0x86>
     3fc:	29 85       	ldd	r18, Y+9	; 0x09
     3fe:	3a 85       	ldd	r19, Y+10	; 0x0a
     400:	21 15       	cp	r18, r1
     402:	31 05       	cpc	r19, r1
     404:	91 f5       	brne	.+100    	; 0x46a <__LOCK_REGION_LENGTH__+0x6a>
     406:	81 30       	cpi	r24, 0x01	; 1
     408:	91 05       	cpc	r25, r1
     40a:	71 f4       	brne	.+28     	; 0x428 <__LOCK_REGION_LENGTH__+0x28>
     40c:	8b 81       	ldd	r24, Y+3	; 0x03
     40e:	9c 81       	ldd	r25, Y+4	; 0x04
     410:	c2 97       	sbiw	r24, 0x32	; 50
     412:	28 f4       	brcc	.+10     	; 0x41e <__LOCK_REGION_LENGTH__+0x1e>
     414:	10 92 c7 02 	sts	0x02C7, r1	; 0x8002c7 <pwm1+0x1>
     418:	10 92 c6 02 	sts	0x02C6, r1	; 0x8002c6 <pwm1>
     41c:	62 cf       	rjmp	.-316    	; 0x2e2 <main+0x86>
     41e:	10 93 c7 02 	sts	0x02C7, r17	; 0x8002c7 <pwm1+0x1>
     422:	00 93 c6 02 	sts	0x02C6, r16	; 0x8002c6 <pwm1>
     426:	5d cf       	rjmp	.-326    	; 0x2e2 <main+0x86>
     428:	82 30       	cpi	r24, 0x02	; 2
     42a:	91 05       	cpc	r25, r1
     42c:	29 f4       	brne	.+10     	; 0x438 <__LOCK_REGION_LENGTH__+0x38>
     42e:	8b 81       	ldd	r24, Y+3	; 0x03
     430:	9c 81       	ldd	r25, Y+4	; 0x04
     432:	c2 97       	sbiw	r24, 0x32	; 50
     434:	a8 f4       	brcc	.+42     	; 0x460 <__LOCK_REGION_LENGTH__+0x60>
     436:	0b c0       	rjmp	.+22     	; 0x44e <__LOCK_REGION_LENGTH__+0x4e>
     438:	03 97       	sbiw	r24, 0x03	; 3
     43a:	09 f0       	breq	.+2      	; 0x43e <__LOCK_REGION_LENGTH__+0x3e>
     43c:	52 cf       	rjmp	.-348    	; 0x2e2 <main+0x86>
     43e:	8b 81       	ldd	r24, Y+3	; 0x03
     440:	9c 81       	ldd	r25, Y+4	; 0x04
     442:	c2 97       	sbiw	r24, 0x32	; 50
     444:	48 f4       	brcc	.+18     	; 0x458 <__LOCK_REGION_LENGTH__+0x58>
     446:	10 92 c7 02 	sts	0x02C7, r1	; 0x8002c7 <pwm1+0x1>
     44a:	10 92 c6 02 	sts	0x02C6, r1	; 0x8002c6 <pwm1>
     44e:	10 92 c5 02 	sts	0x02C5, r1	; 0x8002c5 <__data_end+0x1>
     452:	10 92 c4 02 	sts	0x02C4, r1	; 0x8002c4 <__data_end>
     456:	45 cf       	rjmp	.-374    	; 0x2e2 <main+0x86>
     458:	10 93 c7 02 	sts	0x02C7, r17	; 0x8002c7 <pwm1+0x1>
     45c:	00 93 c6 02 	sts	0x02C6, r16	; 0x8002c6 <pwm1>
     460:	10 93 c5 02 	sts	0x02C5, r17	; 0x8002c5 <__data_end+0x1>
     464:	00 93 c4 02 	sts	0x02C4, r16	; 0x8002c4 <__data_end>
     468:	3c cf       	rjmp	.-392    	; 0x2e2 <main+0x86>
     46a:	21 30       	cpi	r18, 0x01	; 1
     46c:	31 05       	cpc	r19, r1
     46e:	f1 f4       	brne	.+60     	; 0x4ac <__LOCK_REGION_LENGTH__+0xac>
     470:	81 30       	cpi	r24, 0x01	; 1
     472:	91 05       	cpc	r25, r1
     474:	39 f4       	brne	.+14     	; 0x484 <__LOCK_REGION_LENGTH__+0x84>
     476:	8b 81       	ldd	r24, Y+3	; 0x03
     478:	9c 81       	ldd	r25, Y+4	; 0x04
     47a:	90 93 17 02 	sts	0x0217, r25	; 0x800217 <pwm3+0x1>
     47e:	80 93 16 02 	sts	0x0216, r24	; 0x800216 <pwm3>
     482:	2f cf       	rjmp	.-418    	; 0x2e2 <main+0x86>
     484:	82 30       	cpi	r24, 0x02	; 2
     486:	91 05       	cpc	r25, r1
     488:	19 f4       	brne	.+6      	; 0x490 <__LOCK_REGION_LENGTH__+0x90>
     48a:	8b 81       	ldd	r24, Y+3	; 0x03
     48c:	9c 81       	ldd	r25, Y+4	; 0x04
     48e:	09 c0       	rjmp	.+18     	; 0x4a2 <__LOCK_REGION_LENGTH__+0xa2>
     490:	03 97       	sbiw	r24, 0x03	; 3
     492:	09 f0       	breq	.+2      	; 0x496 <__LOCK_REGION_LENGTH__+0x96>
     494:	26 cf       	rjmp	.-436    	; 0x2e2 <main+0x86>
     496:	8b 81       	ldd	r24, Y+3	; 0x03
     498:	9c 81       	ldd	r25, Y+4	; 0x04
     49a:	90 93 17 02 	sts	0x0217, r25	; 0x800217 <pwm3+0x1>
     49e:	80 93 16 02 	sts	0x0216, r24	; 0x800216 <pwm3>
     4a2:	90 93 15 02 	sts	0x0215, r25	; 0x800215 <pwm4+0x1>
     4a6:	80 93 14 02 	sts	0x0214, r24	; 0x800214 <pwm4>
     4aa:	1b cf       	rjmp	.-458    	; 0x2e2 <main+0x86>
     4ac:	22 30       	cpi	r18, 0x02	; 2
     4ae:	31 05       	cpc	r19, r1
     4b0:	09 f0       	breq	.+2      	; 0x4b4 <__LOCK_REGION_LENGTH__+0xb4>
     4b2:	17 cf       	rjmp	.-466    	; 0x2e2 <main+0x86>
     4b4:	01 97       	sbiw	r24, 0x01	; 1
     4b6:	09 f0       	breq	.+2      	; 0x4ba <__LOCK_REGION_LENGTH__+0xba>
     4b8:	14 cf       	rjmp	.-472    	; 0x2e2 <main+0x86>
     4ba:	8f 81       	ldd	r24, Y+7	; 0x07
     4bc:	98 85       	ldd	r25, Y+8	; 0x08
     4be:	90 93 13 02 	sts	0x0213, r25	; 0x800213 <pwm5+0x1>
     4c2:	80 93 12 02 	sts	0x0212, r24	; 0x800212 <pwm5>
     4c6:	8d 81       	ldd	r24, Y+5	; 0x05
     4c8:	9e 81       	ldd	r25, Y+6	; 0x06
     4ca:	90 93 11 02 	sts	0x0211, r25	; 0x800211 <pwm6+0x1>
     4ce:	80 93 10 02 	sts	0x0210, r24	; 0x800210 <pwm6>
     4d2:	8b 81       	ldd	r24, Y+3	; 0x03
     4d4:	9c 81       	ldd	r25, Y+4	; 0x04
     4d6:	90 93 0f 02 	sts	0x020F, r25	; 0x80020f <pwm7+0x1>
     4da:	80 93 0e 02 	sts	0x020E, r24	; 0x80020e <pwm7>
     4de:	01 cf       	rjmp	.-510    	; 0x2e2 <main+0x86>

000004e0 <uart_init>:
     4e0:	10 92 c5 00 	sts	0x00C5, r1	; 0x8000c5 <__TEXT_REGION_LENGTH__+0x7000c5>
     4e4:	87 e6       	ldi	r24, 0x67	; 103
     4e6:	80 93 c4 00 	sts	0x00C4, r24	; 0x8000c4 <__TEXT_REGION_LENGTH__+0x7000c4>
     4ea:	8d ef       	ldi	r24, 0xFD	; 253
     4ec:	80 93 c0 00 	sts	0x00C0, r24	; 0x8000c0 <__TEXT_REGION_LENGTH__+0x7000c0>
     4f0:	e1 ec       	ldi	r30, 0xC1	; 193
     4f2:	f0 e0       	ldi	r31, 0x00	; 0
     4f4:	80 81       	ld	r24, Z
     4f6:	88 61       	ori	r24, 0x18	; 24
     4f8:	80 83       	st	Z, r24
     4fa:	e2 ec       	ldi	r30, 0xC2	; 194
     4fc:	f0 e0       	ldi	r31, 0x00	; 0
     4fe:	86 e0       	ldi	r24, 0x06	; 6
     500:	80 83       	st	Z, r24
     502:	80 83       	st	Z, r24
     504:	08 95       	ret

00000506 <uart_putchar>:
     506:	cf 93       	push	r28
     508:	c8 2f       	mov	r28, r24
     50a:	8a 30       	cpi	r24, 0x0A	; 10
     50c:	11 f4       	brne	.+4      	; 0x512 <uart_putchar+0xc>
     50e:	8d e0       	ldi	r24, 0x0D	; 13
     510:	fa df       	rcall	.-12     	; 0x506 <uart_putchar>
     512:	80 91 c0 00 	lds	r24, 0x00C0	; 0x8000c0 <__TEXT_REGION_LENGTH__+0x7000c0>
     516:	85 ff       	sbrs	r24, 5
     518:	fc cf       	rjmp	.-8      	; 0x512 <uart_putchar+0xc>
     51a:	c0 93 c6 00 	sts	0x00C6, r28	; 0x8000c6 <__TEXT_REGION_LENGTH__+0x7000c6>
     51e:	80 e0       	ldi	r24, 0x00	; 0
     520:	90 e0       	ldi	r25, 0x00	; 0
     522:	cf 91       	pop	r28
     524:	08 95       	ret

00000526 <uart_getchar>:
     526:	cf 93       	push	r28
     528:	80 91 c0 00 	lds	r24, 0x00C0	; 0x8000c0 <__TEXT_REGION_LENGTH__+0x7000c0>
     52c:	87 ff       	sbrs	r24, 7
     52e:	fc cf       	rjmp	.-8      	; 0x528 <uart_getchar+0x2>
     530:	80 91 c0 00 	lds	r24, 0x00C0	; 0x8000c0 <__TEXT_REGION_LENGTH__+0x7000c0>
     534:	84 fd       	sbrc	r24, 4
     536:	08 c0       	rjmp	.+16     	; 0x548 <uart_getchar+0x22>
     538:	80 91 c0 00 	lds	r24, 0x00C0	; 0x8000c0 <__TEXT_REGION_LENGTH__+0x7000c0>
     53c:	83 fd       	sbrc	r24, 3
     53e:	04 c0       	rjmp	.+8      	; 0x548 <uart_getchar+0x22>
     540:	80 91 c0 00 	lds	r24, 0x00C0	; 0x8000c0 <__TEXT_REGION_LENGTH__+0x7000c0>
     544:	82 ff       	sbrs	r24, 2
     546:	05 c0       	rjmp	.+10     	; 0x552 <uart_getchar+0x2c>
     548:	80 91 c6 00 	lds	r24, 0x00C6	; 0x8000c6 <__TEXT_REGION_LENGTH__+0x7000c6>
     54c:	80 e0       	ldi	r24, 0x00	; 0
     54e:	90 e0       	ldi	r25, 0x00	; 0
     550:	0a c0       	rjmp	.+20     	; 0x566 <uart_getchar+0x40>
     552:	c0 91 c6 00 	lds	r28, 0x00C6	; 0x8000c6 <__TEXT_REGION_LENGTH__+0x7000c6>
     556:	60 91 cc 02 	lds	r22, 0x02CC	; 0x8002cc <__iob+0x2>
     55a:	70 91 cd 02 	lds	r23, 0x02CD	; 0x8002cd <__iob+0x3>
     55e:	8c 2f       	mov	r24, r28
     560:	d2 df       	rcall	.-92     	; 0x506 <uart_putchar>
     562:	8c 2f       	mov	r24, r28
     564:	90 e0       	ldi	r25, 0x00	; 0
     566:	cf 91       	pop	r28
     568:	08 95       	ret

0000056a <uart_error>:
     56a:	05 d0       	rcall	.+10     	; 0x576 <clearerr>
     56c:	80 91 ca 02 	lds	r24, 0x02CA	; 0x8002ca <__iob>
     570:	90 91 cb 02 	lds	r25, 0x02CB	; 0x8002cb <__iob+0x1>
     574:	05 c0       	rjmp	.+10     	; 0x580 <fgetc>

00000576 <clearerr>:
     576:	fc 01       	movw	r30, r24
     578:	93 81       	ldd	r25, Z+3	; 0x03
     57a:	9f 7c       	andi	r25, 0xCF	; 207
     57c:	93 83       	std	Z+3, r25	; 0x03
     57e:	08 95       	ret

00000580 <fgetc>:
     580:	cf 93       	push	r28
     582:	df 93       	push	r29
     584:	ec 01       	movw	r28, r24
     586:	2b 81       	ldd	r18, Y+3	; 0x03
     588:	20 ff       	sbrs	r18, 0
     58a:	33 c0       	rjmp	.+102    	; 0x5f2 <fgetc+0x72>
     58c:	26 ff       	sbrs	r18, 6
     58e:	0a c0       	rjmp	.+20     	; 0x5a4 <fgetc+0x24>
     590:	2f 7b       	andi	r18, 0xBF	; 191
     592:	2b 83       	std	Y+3, r18	; 0x03
     594:	8e 81       	ldd	r24, Y+6	; 0x06
     596:	9f 81       	ldd	r25, Y+7	; 0x07
     598:	01 96       	adiw	r24, 0x01	; 1
     59a:	9f 83       	std	Y+7, r25	; 0x07
     59c:	8e 83       	std	Y+6, r24	; 0x06
     59e:	8a 81       	ldd	r24, Y+2	; 0x02
     5a0:	90 e0       	ldi	r25, 0x00	; 0
     5a2:	29 c0       	rjmp	.+82     	; 0x5f6 <fgetc+0x76>
     5a4:	22 ff       	sbrs	r18, 2
     5a6:	0f c0       	rjmp	.+30     	; 0x5c6 <fgetc+0x46>
     5a8:	e8 81       	ld	r30, Y
     5aa:	f9 81       	ldd	r31, Y+1	; 0x01
     5ac:	80 81       	ld	r24, Z
     5ae:	08 2e       	mov	r0, r24
     5b0:	00 0c       	add	r0, r0
     5b2:	99 0b       	sbc	r25, r25
     5b4:	00 97       	sbiw	r24, 0x00	; 0
     5b6:	19 f4       	brne	.+6      	; 0x5be <fgetc+0x3e>
     5b8:	20 62       	ori	r18, 0x20	; 32
     5ba:	2b 83       	std	Y+3, r18	; 0x03
     5bc:	1a c0       	rjmp	.+52     	; 0x5f2 <fgetc+0x72>
     5be:	31 96       	adiw	r30, 0x01	; 1
     5c0:	f9 83       	std	Y+1, r31	; 0x01
     5c2:	e8 83       	st	Y, r30
     5c4:	0e c0       	rjmp	.+28     	; 0x5e2 <fgetc+0x62>
     5c6:	ea 85       	ldd	r30, Y+10	; 0x0a
     5c8:	fb 85       	ldd	r31, Y+11	; 0x0b
     5ca:	19 95       	eicall
     5cc:	97 ff       	sbrs	r25, 7
     5ce:	09 c0       	rjmp	.+18     	; 0x5e2 <fgetc+0x62>
     5d0:	2b 81       	ldd	r18, Y+3	; 0x03
     5d2:	01 96       	adiw	r24, 0x01	; 1
     5d4:	11 f0       	breq	.+4      	; 0x5da <fgetc+0x5a>
     5d6:	80 e2       	ldi	r24, 0x20	; 32
     5d8:	01 c0       	rjmp	.+2      	; 0x5dc <fgetc+0x5c>
     5da:	80 e1       	ldi	r24, 0x10	; 16
     5dc:	82 2b       	or	r24, r18
     5de:	8b 83       	std	Y+3, r24	; 0x03
     5e0:	08 c0       	rjmp	.+16     	; 0x5f2 <fgetc+0x72>
     5e2:	2e 81       	ldd	r18, Y+6	; 0x06
     5e4:	3f 81       	ldd	r19, Y+7	; 0x07
     5e6:	2f 5f       	subi	r18, 0xFF	; 255
     5e8:	3f 4f       	sbci	r19, 0xFF	; 255
     5ea:	3f 83       	std	Y+7, r19	; 0x07
     5ec:	2e 83       	std	Y+6, r18	; 0x06
     5ee:	99 27       	eor	r25, r25
     5f0:	02 c0       	rjmp	.+4      	; 0x5f6 <fgetc+0x76>
     5f2:	8f ef       	ldi	r24, 0xFF	; 255
     5f4:	9f ef       	ldi	r25, 0xFF	; 255
     5f6:	df 91       	pop	r29
     5f8:	cf 91       	pop	r28
     5fa:	08 95       	ret

000005fc <printf>:
     5fc:	cf 93       	push	r28
     5fe:	df 93       	push	r29
     600:	cd b7       	in	r28, 0x3d	; 61
     602:	de b7       	in	r29, 0x3e	; 62
     604:	ae 01       	movw	r20, r28
     606:	4a 5f       	subi	r20, 0xFA	; 250
     608:	5f 4f       	sbci	r21, 0xFF	; 255
     60a:	fa 01       	movw	r30, r20
     60c:	61 91       	ld	r22, Z+
     60e:	71 91       	ld	r23, Z+
     610:	af 01       	movw	r20, r30
     612:	80 91 cc 02 	lds	r24, 0x02CC	; 0x8002cc <__iob+0x2>
     616:	90 91 cd 02 	lds	r25, 0x02CD	; 0x8002cd <__iob+0x3>
     61a:	16 d0       	rcall	.+44     	; 0x648 <vfprintf>
     61c:	df 91       	pop	r29
     61e:	cf 91       	pop	r28
     620:	08 95       	ret

00000622 <scanf>:
     622:	cf 93       	push	r28
     624:	df 93       	push	r29
     626:	cd b7       	in	r28, 0x3d	; 61
     628:	de b7       	in	r29, 0x3e	; 62
     62a:	ae 01       	movw	r20, r28
     62c:	4a 5f       	subi	r20, 0xFA	; 250
     62e:	5f 4f       	sbci	r21, 0xFF	; 255
     630:	fa 01       	movw	r30, r20
     632:	61 91       	ld	r22, Z+
     634:	71 91       	ld	r23, Z+
     636:	af 01       	movw	r20, r30
     638:	80 91 ca 02 	lds	r24, 0x02CA	; 0x8002ca <__iob>
     63c:	90 91 cb 02 	lds	r25, 0x02CB	; 0x8002cb <__iob+0x1>
     640:	b2 d3       	rcall	.+1892   	; 0xda6 <vfscanf>
     642:	df 91       	pop	r29
     644:	cf 91       	pop	r28
     646:	08 95       	ret

00000648 <vfprintf>:
     648:	2f 92       	push	r2
     64a:	3f 92       	push	r3
     64c:	4f 92       	push	r4
     64e:	5f 92       	push	r5
     650:	6f 92       	push	r6
     652:	7f 92       	push	r7
     654:	8f 92       	push	r8
     656:	9f 92       	push	r9
     658:	af 92       	push	r10
     65a:	bf 92       	push	r11
     65c:	cf 92       	push	r12
     65e:	df 92       	push	r13
     660:	ef 92       	push	r14
     662:	ff 92       	push	r15
     664:	0f 93       	push	r16
     666:	1f 93       	push	r17
     668:	cf 93       	push	r28
     66a:	df 93       	push	r29
     66c:	cd b7       	in	r28, 0x3d	; 61
     66e:	de b7       	in	r29, 0x3e	; 62
     670:	2b 97       	sbiw	r28, 0x0b	; 11
     672:	0f b6       	in	r0, 0x3f	; 63
     674:	f8 94       	cli
     676:	de bf       	out	0x3e, r29	; 62
     678:	0f be       	out	0x3f, r0	; 63
     67a:	cd bf       	out	0x3d, r28	; 61
     67c:	6c 01       	movw	r12, r24
     67e:	7b 01       	movw	r14, r22
     680:	8a 01       	movw	r16, r20
     682:	fc 01       	movw	r30, r24
     684:	17 82       	std	Z+7, r1	; 0x07
     686:	16 82       	std	Z+6, r1	; 0x06
     688:	83 81       	ldd	r24, Z+3	; 0x03
     68a:	81 ff       	sbrs	r24, 1
     68c:	bf c1       	rjmp	.+894    	; 0xa0c <vfprintf+0x3c4>
     68e:	ce 01       	movw	r24, r28
     690:	01 96       	adiw	r24, 0x01	; 1
     692:	3c 01       	movw	r6, r24
     694:	f6 01       	movw	r30, r12
     696:	93 81       	ldd	r25, Z+3	; 0x03
     698:	f7 01       	movw	r30, r14
     69a:	93 fd       	sbrc	r25, 3
     69c:	85 91       	lpm	r24, Z+
     69e:	93 ff       	sbrs	r25, 3
     6a0:	81 91       	ld	r24, Z+
     6a2:	7f 01       	movw	r14, r30
     6a4:	88 23       	and	r24, r24
     6a6:	09 f4       	brne	.+2      	; 0x6aa <vfprintf+0x62>
     6a8:	ad c1       	rjmp	.+858    	; 0xa04 <vfprintf+0x3bc>
     6aa:	85 32       	cpi	r24, 0x25	; 37
     6ac:	39 f4       	brne	.+14     	; 0x6bc <vfprintf+0x74>
     6ae:	93 fd       	sbrc	r25, 3
     6b0:	85 91       	lpm	r24, Z+
     6b2:	93 ff       	sbrs	r25, 3
     6b4:	81 91       	ld	r24, Z+
     6b6:	7f 01       	movw	r14, r30
     6b8:	85 32       	cpi	r24, 0x25	; 37
     6ba:	21 f4       	brne	.+8      	; 0x6c4 <vfprintf+0x7c>
     6bc:	b6 01       	movw	r22, r12
     6be:	90 e0       	ldi	r25, 0x00	; 0
     6c0:	b2 d4       	rcall	.+2404   	; 0x1026 <fputc>
     6c2:	e8 cf       	rjmp	.-48     	; 0x694 <vfprintf+0x4c>
     6c4:	91 2c       	mov	r9, r1
     6c6:	21 2c       	mov	r2, r1
     6c8:	31 2c       	mov	r3, r1
     6ca:	ff e1       	ldi	r31, 0x1F	; 31
     6cc:	f3 15       	cp	r31, r3
     6ce:	d8 f0       	brcs	.+54     	; 0x706 <vfprintf+0xbe>
     6d0:	8b 32       	cpi	r24, 0x2B	; 43
     6d2:	79 f0       	breq	.+30     	; 0x6f2 <vfprintf+0xaa>
     6d4:	38 f4       	brcc	.+14     	; 0x6e4 <vfprintf+0x9c>
     6d6:	80 32       	cpi	r24, 0x20	; 32
     6d8:	79 f0       	breq	.+30     	; 0x6f8 <vfprintf+0xb0>
     6da:	83 32       	cpi	r24, 0x23	; 35
     6dc:	a1 f4       	brne	.+40     	; 0x706 <vfprintf+0xbe>
     6de:	23 2d       	mov	r18, r3
     6e0:	20 61       	ori	r18, 0x10	; 16
     6e2:	1d c0       	rjmp	.+58     	; 0x71e <vfprintf+0xd6>
     6e4:	8d 32       	cpi	r24, 0x2D	; 45
     6e6:	61 f0       	breq	.+24     	; 0x700 <vfprintf+0xb8>
     6e8:	80 33       	cpi	r24, 0x30	; 48
     6ea:	69 f4       	brne	.+26     	; 0x706 <vfprintf+0xbe>
     6ec:	23 2d       	mov	r18, r3
     6ee:	21 60       	ori	r18, 0x01	; 1
     6f0:	16 c0       	rjmp	.+44     	; 0x71e <vfprintf+0xd6>
     6f2:	83 2d       	mov	r24, r3
     6f4:	82 60       	ori	r24, 0x02	; 2
     6f6:	38 2e       	mov	r3, r24
     6f8:	e3 2d       	mov	r30, r3
     6fa:	e4 60       	ori	r30, 0x04	; 4
     6fc:	3e 2e       	mov	r3, r30
     6fe:	2a c0       	rjmp	.+84     	; 0x754 <vfprintf+0x10c>
     700:	f3 2d       	mov	r31, r3
     702:	f8 60       	ori	r31, 0x08	; 8
     704:	1d c0       	rjmp	.+58     	; 0x740 <vfprintf+0xf8>
     706:	37 fc       	sbrc	r3, 7
     708:	2d c0       	rjmp	.+90     	; 0x764 <vfprintf+0x11c>
     70a:	20 ed       	ldi	r18, 0xD0	; 208
     70c:	28 0f       	add	r18, r24
     70e:	2a 30       	cpi	r18, 0x0A	; 10
     710:	40 f0       	brcs	.+16     	; 0x722 <vfprintf+0xda>
     712:	8e 32       	cpi	r24, 0x2E	; 46
     714:	b9 f4       	brne	.+46     	; 0x744 <vfprintf+0xfc>
     716:	36 fc       	sbrc	r3, 6
     718:	75 c1       	rjmp	.+746    	; 0xa04 <vfprintf+0x3bc>
     71a:	23 2d       	mov	r18, r3
     71c:	20 64       	ori	r18, 0x40	; 64
     71e:	32 2e       	mov	r3, r18
     720:	19 c0       	rjmp	.+50     	; 0x754 <vfprintf+0x10c>
     722:	36 fe       	sbrs	r3, 6
     724:	06 c0       	rjmp	.+12     	; 0x732 <vfprintf+0xea>
     726:	8a e0       	ldi	r24, 0x0A	; 10
     728:	98 9e       	mul	r9, r24
     72a:	20 0d       	add	r18, r0
     72c:	11 24       	eor	r1, r1
     72e:	92 2e       	mov	r9, r18
     730:	11 c0       	rjmp	.+34     	; 0x754 <vfprintf+0x10c>
     732:	ea e0       	ldi	r30, 0x0A	; 10
     734:	2e 9e       	mul	r2, r30
     736:	20 0d       	add	r18, r0
     738:	11 24       	eor	r1, r1
     73a:	22 2e       	mov	r2, r18
     73c:	f3 2d       	mov	r31, r3
     73e:	f0 62       	ori	r31, 0x20	; 32
     740:	3f 2e       	mov	r3, r31
     742:	08 c0       	rjmp	.+16     	; 0x754 <vfprintf+0x10c>
     744:	8c 36       	cpi	r24, 0x6C	; 108
     746:	21 f4       	brne	.+8      	; 0x750 <vfprintf+0x108>
     748:	83 2d       	mov	r24, r3
     74a:	80 68       	ori	r24, 0x80	; 128
     74c:	38 2e       	mov	r3, r24
     74e:	02 c0       	rjmp	.+4      	; 0x754 <vfprintf+0x10c>
     750:	88 36       	cpi	r24, 0x68	; 104
     752:	41 f4       	brne	.+16     	; 0x764 <vfprintf+0x11c>
     754:	f7 01       	movw	r30, r14
     756:	93 fd       	sbrc	r25, 3
     758:	85 91       	lpm	r24, Z+
     75a:	93 ff       	sbrs	r25, 3
     75c:	81 91       	ld	r24, Z+
     75e:	7f 01       	movw	r14, r30
     760:	81 11       	cpse	r24, r1
     762:	b3 cf       	rjmp	.-154    	; 0x6ca <vfprintf+0x82>
     764:	98 2f       	mov	r25, r24
     766:	9f 7d       	andi	r25, 0xDF	; 223
     768:	95 54       	subi	r25, 0x45	; 69
     76a:	93 30       	cpi	r25, 0x03	; 3
     76c:	28 f4       	brcc	.+10     	; 0x778 <vfprintf+0x130>
     76e:	0c 5f       	subi	r16, 0xFC	; 252
     770:	1f 4f       	sbci	r17, 0xFF	; 255
     772:	9f e3       	ldi	r25, 0x3F	; 63
     774:	99 83       	std	Y+1, r25	; 0x01
     776:	0d c0       	rjmp	.+26     	; 0x792 <vfprintf+0x14a>
     778:	83 36       	cpi	r24, 0x63	; 99
     77a:	31 f0       	breq	.+12     	; 0x788 <vfprintf+0x140>
     77c:	83 37       	cpi	r24, 0x73	; 115
     77e:	71 f0       	breq	.+28     	; 0x79c <vfprintf+0x154>
     780:	83 35       	cpi	r24, 0x53	; 83
     782:	09 f0       	breq	.+2      	; 0x786 <vfprintf+0x13e>
     784:	55 c0       	rjmp	.+170    	; 0x830 <vfprintf+0x1e8>
     786:	20 c0       	rjmp	.+64     	; 0x7c8 <vfprintf+0x180>
     788:	f8 01       	movw	r30, r16
     78a:	80 81       	ld	r24, Z
     78c:	89 83       	std	Y+1, r24	; 0x01
     78e:	0e 5f       	subi	r16, 0xFE	; 254
     790:	1f 4f       	sbci	r17, 0xFF	; 255
     792:	88 24       	eor	r8, r8
     794:	83 94       	inc	r8
     796:	91 2c       	mov	r9, r1
     798:	53 01       	movw	r10, r6
     79a:	12 c0       	rjmp	.+36     	; 0x7c0 <vfprintf+0x178>
     79c:	28 01       	movw	r4, r16
     79e:	f2 e0       	ldi	r31, 0x02	; 2
     7a0:	4f 0e       	add	r4, r31
     7a2:	51 1c       	adc	r5, r1
     7a4:	f8 01       	movw	r30, r16
     7a6:	a0 80       	ld	r10, Z
     7a8:	b1 80       	ldd	r11, Z+1	; 0x01
     7aa:	36 fe       	sbrs	r3, 6
     7ac:	03 c0       	rjmp	.+6      	; 0x7b4 <vfprintf+0x16c>
     7ae:	69 2d       	mov	r22, r9
     7b0:	70 e0       	ldi	r23, 0x00	; 0
     7b2:	02 c0       	rjmp	.+4      	; 0x7b8 <vfprintf+0x170>
     7b4:	6f ef       	ldi	r22, 0xFF	; 255
     7b6:	7f ef       	ldi	r23, 0xFF	; 255
     7b8:	c5 01       	movw	r24, r10
     7ba:	2a d4       	rcall	.+2132   	; 0x1010 <strnlen>
     7bc:	4c 01       	movw	r8, r24
     7be:	82 01       	movw	r16, r4
     7c0:	f3 2d       	mov	r31, r3
     7c2:	ff 77       	andi	r31, 0x7F	; 127
     7c4:	3f 2e       	mov	r3, r31
     7c6:	15 c0       	rjmp	.+42     	; 0x7f2 <vfprintf+0x1aa>
     7c8:	28 01       	movw	r4, r16
     7ca:	22 e0       	ldi	r18, 0x02	; 2
     7cc:	42 0e       	add	r4, r18
     7ce:	51 1c       	adc	r5, r1
     7d0:	f8 01       	movw	r30, r16
     7d2:	a0 80       	ld	r10, Z
     7d4:	b1 80       	ldd	r11, Z+1	; 0x01
     7d6:	36 fe       	sbrs	r3, 6
     7d8:	03 c0       	rjmp	.+6      	; 0x7e0 <vfprintf+0x198>
     7da:	69 2d       	mov	r22, r9
     7dc:	70 e0       	ldi	r23, 0x00	; 0
     7de:	02 c0       	rjmp	.+4      	; 0x7e4 <vfprintf+0x19c>
     7e0:	6f ef       	ldi	r22, 0xFF	; 255
     7e2:	7f ef       	ldi	r23, 0xFF	; 255
     7e4:	c5 01       	movw	r24, r10
     7e6:	09 d4       	rcall	.+2066   	; 0xffa <strnlen_P>
     7e8:	4c 01       	movw	r8, r24
     7ea:	f3 2d       	mov	r31, r3
     7ec:	f0 68       	ori	r31, 0x80	; 128
     7ee:	3f 2e       	mov	r3, r31
     7f0:	82 01       	movw	r16, r4
     7f2:	33 fc       	sbrc	r3, 3
     7f4:	19 c0       	rjmp	.+50     	; 0x828 <vfprintf+0x1e0>
     7f6:	82 2d       	mov	r24, r2
     7f8:	90 e0       	ldi	r25, 0x00	; 0
     7fa:	88 16       	cp	r8, r24
     7fc:	99 06       	cpc	r9, r25
     7fe:	a0 f4       	brcc	.+40     	; 0x828 <vfprintf+0x1e0>
     800:	b6 01       	movw	r22, r12
     802:	80 e2       	ldi	r24, 0x20	; 32
     804:	90 e0       	ldi	r25, 0x00	; 0
     806:	0f d4       	rcall	.+2078   	; 0x1026 <fputc>
     808:	2a 94       	dec	r2
     80a:	f5 cf       	rjmp	.-22     	; 0x7f6 <vfprintf+0x1ae>
     80c:	f5 01       	movw	r30, r10
     80e:	37 fc       	sbrc	r3, 7
     810:	85 91       	lpm	r24, Z+
     812:	37 fe       	sbrs	r3, 7
     814:	81 91       	ld	r24, Z+
     816:	5f 01       	movw	r10, r30
     818:	b6 01       	movw	r22, r12
     81a:	90 e0       	ldi	r25, 0x00	; 0
     81c:	04 d4       	rcall	.+2056   	; 0x1026 <fputc>
     81e:	21 10       	cpse	r2, r1
     820:	2a 94       	dec	r2
     822:	21 e0       	ldi	r18, 0x01	; 1
     824:	82 1a       	sub	r8, r18
     826:	91 08       	sbc	r9, r1
     828:	81 14       	cp	r8, r1
     82a:	91 04       	cpc	r9, r1
     82c:	79 f7       	brne	.-34     	; 0x80c <vfprintf+0x1c4>
     82e:	e1 c0       	rjmp	.+450    	; 0x9f2 <vfprintf+0x3aa>
     830:	84 36       	cpi	r24, 0x64	; 100
     832:	11 f0       	breq	.+4      	; 0x838 <vfprintf+0x1f0>
     834:	89 36       	cpi	r24, 0x69	; 105
     836:	39 f5       	brne	.+78     	; 0x886 <vfprintf+0x23e>
     838:	f8 01       	movw	r30, r16
     83a:	37 fe       	sbrs	r3, 7
     83c:	07 c0       	rjmp	.+14     	; 0x84c <vfprintf+0x204>
     83e:	60 81       	ld	r22, Z
     840:	71 81       	ldd	r23, Z+1	; 0x01
     842:	82 81       	ldd	r24, Z+2	; 0x02
     844:	93 81       	ldd	r25, Z+3	; 0x03
     846:	0c 5f       	subi	r16, 0xFC	; 252
     848:	1f 4f       	sbci	r17, 0xFF	; 255
     84a:	08 c0       	rjmp	.+16     	; 0x85c <vfprintf+0x214>
     84c:	60 81       	ld	r22, Z
     84e:	71 81       	ldd	r23, Z+1	; 0x01
     850:	07 2e       	mov	r0, r23
     852:	00 0c       	add	r0, r0
     854:	88 0b       	sbc	r24, r24
     856:	99 0b       	sbc	r25, r25
     858:	0e 5f       	subi	r16, 0xFE	; 254
     85a:	1f 4f       	sbci	r17, 0xFF	; 255
     85c:	f3 2d       	mov	r31, r3
     85e:	ff 76       	andi	r31, 0x6F	; 111
     860:	3f 2e       	mov	r3, r31
     862:	97 ff       	sbrs	r25, 7
     864:	09 c0       	rjmp	.+18     	; 0x878 <vfprintf+0x230>
     866:	90 95       	com	r25
     868:	80 95       	com	r24
     86a:	70 95       	com	r23
     86c:	61 95       	neg	r22
     86e:	7f 4f       	sbci	r23, 0xFF	; 255
     870:	8f 4f       	sbci	r24, 0xFF	; 255
     872:	9f 4f       	sbci	r25, 0xFF	; 255
     874:	f0 68       	ori	r31, 0x80	; 128
     876:	3f 2e       	mov	r3, r31
     878:	2a e0       	ldi	r18, 0x0A	; 10
     87a:	30 e0       	ldi	r19, 0x00	; 0
     87c:	a3 01       	movw	r20, r6
     87e:	28 d4       	rcall	.+2128   	; 0x10d0 <__ultoa_invert>
     880:	88 2e       	mov	r8, r24
     882:	86 18       	sub	r8, r6
     884:	44 c0       	rjmp	.+136    	; 0x90e <vfprintf+0x2c6>
     886:	85 37       	cpi	r24, 0x75	; 117
     888:	31 f4       	brne	.+12     	; 0x896 <vfprintf+0x24e>
     88a:	23 2d       	mov	r18, r3
     88c:	2f 7e       	andi	r18, 0xEF	; 239
     88e:	b2 2e       	mov	r11, r18
     890:	2a e0       	ldi	r18, 0x0A	; 10
     892:	30 e0       	ldi	r19, 0x00	; 0
     894:	25 c0       	rjmp	.+74     	; 0x8e0 <vfprintf+0x298>
     896:	93 2d       	mov	r25, r3
     898:	99 7f       	andi	r25, 0xF9	; 249
     89a:	b9 2e       	mov	r11, r25
     89c:	8f 36       	cpi	r24, 0x6F	; 111
     89e:	c1 f0       	breq	.+48     	; 0x8d0 <vfprintf+0x288>
     8a0:	18 f4       	brcc	.+6      	; 0x8a8 <vfprintf+0x260>
     8a2:	88 35       	cpi	r24, 0x58	; 88
     8a4:	79 f0       	breq	.+30     	; 0x8c4 <vfprintf+0x27c>
     8a6:	ae c0       	rjmp	.+348    	; 0xa04 <vfprintf+0x3bc>
     8a8:	80 37       	cpi	r24, 0x70	; 112
     8aa:	19 f0       	breq	.+6      	; 0x8b2 <vfprintf+0x26a>
     8ac:	88 37       	cpi	r24, 0x78	; 120
     8ae:	21 f0       	breq	.+8      	; 0x8b8 <vfprintf+0x270>
     8b0:	a9 c0       	rjmp	.+338    	; 0xa04 <vfprintf+0x3bc>
     8b2:	e9 2f       	mov	r30, r25
     8b4:	e0 61       	ori	r30, 0x10	; 16
     8b6:	be 2e       	mov	r11, r30
     8b8:	b4 fe       	sbrs	r11, 4
     8ba:	0d c0       	rjmp	.+26     	; 0x8d6 <vfprintf+0x28e>
     8bc:	fb 2d       	mov	r31, r11
     8be:	f4 60       	ori	r31, 0x04	; 4
     8c0:	bf 2e       	mov	r11, r31
     8c2:	09 c0       	rjmp	.+18     	; 0x8d6 <vfprintf+0x28e>
     8c4:	34 fe       	sbrs	r3, 4
     8c6:	0a c0       	rjmp	.+20     	; 0x8dc <vfprintf+0x294>
     8c8:	29 2f       	mov	r18, r25
     8ca:	26 60       	ori	r18, 0x06	; 6
     8cc:	b2 2e       	mov	r11, r18
     8ce:	06 c0       	rjmp	.+12     	; 0x8dc <vfprintf+0x294>
     8d0:	28 e0       	ldi	r18, 0x08	; 8
     8d2:	30 e0       	ldi	r19, 0x00	; 0
     8d4:	05 c0       	rjmp	.+10     	; 0x8e0 <vfprintf+0x298>
     8d6:	20 e1       	ldi	r18, 0x10	; 16
     8d8:	30 e0       	ldi	r19, 0x00	; 0
     8da:	02 c0       	rjmp	.+4      	; 0x8e0 <vfprintf+0x298>
     8dc:	20 e1       	ldi	r18, 0x10	; 16
     8de:	32 e0       	ldi	r19, 0x02	; 2
     8e0:	f8 01       	movw	r30, r16
     8e2:	b7 fe       	sbrs	r11, 7
     8e4:	07 c0       	rjmp	.+14     	; 0x8f4 <vfprintf+0x2ac>
     8e6:	60 81       	ld	r22, Z
     8e8:	71 81       	ldd	r23, Z+1	; 0x01
     8ea:	82 81       	ldd	r24, Z+2	; 0x02
     8ec:	93 81       	ldd	r25, Z+3	; 0x03
     8ee:	0c 5f       	subi	r16, 0xFC	; 252
     8f0:	1f 4f       	sbci	r17, 0xFF	; 255
     8f2:	06 c0       	rjmp	.+12     	; 0x900 <vfprintf+0x2b8>
     8f4:	60 81       	ld	r22, Z
     8f6:	71 81       	ldd	r23, Z+1	; 0x01
     8f8:	80 e0       	ldi	r24, 0x00	; 0
     8fa:	90 e0       	ldi	r25, 0x00	; 0
     8fc:	0e 5f       	subi	r16, 0xFE	; 254
     8fe:	1f 4f       	sbci	r17, 0xFF	; 255
     900:	a3 01       	movw	r20, r6
     902:	e6 d3       	rcall	.+1996   	; 0x10d0 <__ultoa_invert>
     904:	88 2e       	mov	r8, r24
     906:	86 18       	sub	r8, r6
     908:	fb 2d       	mov	r31, r11
     90a:	ff 77       	andi	r31, 0x7F	; 127
     90c:	3f 2e       	mov	r3, r31
     90e:	36 fe       	sbrs	r3, 6
     910:	0d c0       	rjmp	.+26     	; 0x92c <vfprintf+0x2e4>
     912:	23 2d       	mov	r18, r3
     914:	2e 7f       	andi	r18, 0xFE	; 254
     916:	a2 2e       	mov	r10, r18
     918:	89 14       	cp	r8, r9
     91a:	58 f4       	brcc	.+22     	; 0x932 <vfprintf+0x2ea>
     91c:	34 fe       	sbrs	r3, 4
     91e:	0b c0       	rjmp	.+22     	; 0x936 <vfprintf+0x2ee>
     920:	32 fc       	sbrc	r3, 2
     922:	09 c0       	rjmp	.+18     	; 0x936 <vfprintf+0x2ee>
     924:	83 2d       	mov	r24, r3
     926:	8e 7e       	andi	r24, 0xEE	; 238
     928:	a8 2e       	mov	r10, r24
     92a:	05 c0       	rjmp	.+10     	; 0x936 <vfprintf+0x2ee>
     92c:	b8 2c       	mov	r11, r8
     92e:	a3 2c       	mov	r10, r3
     930:	03 c0       	rjmp	.+6      	; 0x938 <vfprintf+0x2f0>
     932:	b8 2c       	mov	r11, r8
     934:	01 c0       	rjmp	.+2      	; 0x938 <vfprintf+0x2f0>
     936:	b9 2c       	mov	r11, r9
     938:	a4 fe       	sbrs	r10, 4
     93a:	0f c0       	rjmp	.+30     	; 0x95a <vfprintf+0x312>
     93c:	fe 01       	movw	r30, r28
     93e:	e8 0d       	add	r30, r8
     940:	f1 1d       	adc	r31, r1
     942:	80 81       	ld	r24, Z
     944:	80 33       	cpi	r24, 0x30	; 48
     946:	21 f4       	brne	.+8      	; 0x950 <vfprintf+0x308>
     948:	9a 2d       	mov	r25, r10
     94a:	99 7e       	andi	r25, 0xE9	; 233
     94c:	a9 2e       	mov	r10, r25
     94e:	09 c0       	rjmp	.+18     	; 0x962 <vfprintf+0x31a>
     950:	a2 fe       	sbrs	r10, 2
     952:	06 c0       	rjmp	.+12     	; 0x960 <vfprintf+0x318>
     954:	b3 94       	inc	r11
     956:	b3 94       	inc	r11
     958:	04 c0       	rjmp	.+8      	; 0x962 <vfprintf+0x31a>
     95a:	8a 2d       	mov	r24, r10
     95c:	86 78       	andi	r24, 0x86	; 134
     95e:	09 f0       	breq	.+2      	; 0x962 <vfprintf+0x31a>
     960:	b3 94       	inc	r11
     962:	a3 fc       	sbrc	r10, 3
     964:	10 c0       	rjmp	.+32     	; 0x986 <vfprintf+0x33e>
     966:	a0 fe       	sbrs	r10, 0
     968:	06 c0       	rjmp	.+12     	; 0x976 <vfprintf+0x32e>
     96a:	b2 14       	cp	r11, r2
     96c:	80 f4       	brcc	.+32     	; 0x98e <vfprintf+0x346>
     96e:	28 0c       	add	r2, r8
     970:	92 2c       	mov	r9, r2
     972:	9b 18       	sub	r9, r11
     974:	0d c0       	rjmp	.+26     	; 0x990 <vfprintf+0x348>
     976:	b2 14       	cp	r11, r2
     978:	58 f4       	brcc	.+22     	; 0x990 <vfprintf+0x348>
     97a:	b6 01       	movw	r22, r12
     97c:	80 e2       	ldi	r24, 0x20	; 32
     97e:	90 e0       	ldi	r25, 0x00	; 0
     980:	52 d3       	rcall	.+1700   	; 0x1026 <fputc>
     982:	b3 94       	inc	r11
     984:	f8 cf       	rjmp	.-16     	; 0x976 <vfprintf+0x32e>
     986:	b2 14       	cp	r11, r2
     988:	18 f4       	brcc	.+6      	; 0x990 <vfprintf+0x348>
     98a:	2b 18       	sub	r2, r11
     98c:	02 c0       	rjmp	.+4      	; 0x992 <vfprintf+0x34a>
     98e:	98 2c       	mov	r9, r8
     990:	21 2c       	mov	r2, r1
     992:	a4 fe       	sbrs	r10, 4
     994:	0f c0       	rjmp	.+30     	; 0x9b4 <vfprintf+0x36c>
     996:	b6 01       	movw	r22, r12
     998:	80 e3       	ldi	r24, 0x30	; 48
     99a:	90 e0       	ldi	r25, 0x00	; 0
     99c:	44 d3       	rcall	.+1672   	; 0x1026 <fputc>
     99e:	a2 fe       	sbrs	r10, 2
     9a0:	16 c0       	rjmp	.+44     	; 0x9ce <vfprintf+0x386>
     9a2:	a1 fc       	sbrc	r10, 1
     9a4:	03 c0       	rjmp	.+6      	; 0x9ac <vfprintf+0x364>
     9a6:	88 e7       	ldi	r24, 0x78	; 120
     9a8:	90 e0       	ldi	r25, 0x00	; 0
     9aa:	02 c0       	rjmp	.+4      	; 0x9b0 <vfprintf+0x368>
     9ac:	88 e5       	ldi	r24, 0x58	; 88
     9ae:	90 e0       	ldi	r25, 0x00	; 0
     9b0:	b6 01       	movw	r22, r12
     9b2:	0c c0       	rjmp	.+24     	; 0x9cc <vfprintf+0x384>
     9b4:	8a 2d       	mov	r24, r10
     9b6:	86 78       	andi	r24, 0x86	; 134
     9b8:	51 f0       	breq	.+20     	; 0x9ce <vfprintf+0x386>
     9ba:	a1 fe       	sbrs	r10, 1
     9bc:	02 c0       	rjmp	.+4      	; 0x9c2 <vfprintf+0x37a>
     9be:	8b e2       	ldi	r24, 0x2B	; 43
     9c0:	01 c0       	rjmp	.+2      	; 0x9c4 <vfprintf+0x37c>
     9c2:	80 e2       	ldi	r24, 0x20	; 32
     9c4:	a7 fc       	sbrc	r10, 7
     9c6:	8d e2       	ldi	r24, 0x2D	; 45
     9c8:	b6 01       	movw	r22, r12
     9ca:	90 e0       	ldi	r25, 0x00	; 0
     9cc:	2c d3       	rcall	.+1624   	; 0x1026 <fputc>
     9ce:	89 14       	cp	r8, r9
     9d0:	30 f4       	brcc	.+12     	; 0x9de <vfprintf+0x396>
     9d2:	b6 01       	movw	r22, r12
     9d4:	80 e3       	ldi	r24, 0x30	; 48
     9d6:	90 e0       	ldi	r25, 0x00	; 0
     9d8:	26 d3       	rcall	.+1612   	; 0x1026 <fputc>
     9da:	9a 94       	dec	r9
     9dc:	f8 cf       	rjmp	.-16     	; 0x9ce <vfprintf+0x386>
     9de:	8a 94       	dec	r8
     9e0:	f3 01       	movw	r30, r6
     9e2:	e8 0d       	add	r30, r8
     9e4:	f1 1d       	adc	r31, r1
     9e6:	80 81       	ld	r24, Z
     9e8:	b6 01       	movw	r22, r12
     9ea:	90 e0       	ldi	r25, 0x00	; 0
     9ec:	1c d3       	rcall	.+1592   	; 0x1026 <fputc>
     9ee:	81 10       	cpse	r8, r1
     9f0:	f6 cf       	rjmp	.-20     	; 0x9de <vfprintf+0x396>
     9f2:	22 20       	and	r2, r2
     9f4:	09 f4       	brne	.+2      	; 0x9f8 <vfprintf+0x3b0>
     9f6:	4e ce       	rjmp	.-868    	; 0x694 <vfprintf+0x4c>
     9f8:	b6 01       	movw	r22, r12
     9fa:	80 e2       	ldi	r24, 0x20	; 32
     9fc:	90 e0       	ldi	r25, 0x00	; 0
     9fe:	13 d3       	rcall	.+1574   	; 0x1026 <fputc>
     a00:	2a 94       	dec	r2
     a02:	f7 cf       	rjmp	.-18     	; 0x9f2 <vfprintf+0x3aa>
     a04:	f6 01       	movw	r30, r12
     a06:	86 81       	ldd	r24, Z+6	; 0x06
     a08:	97 81       	ldd	r25, Z+7	; 0x07
     a0a:	02 c0       	rjmp	.+4      	; 0xa10 <vfprintf+0x3c8>
     a0c:	8f ef       	ldi	r24, 0xFF	; 255
     a0e:	9f ef       	ldi	r25, 0xFF	; 255
     a10:	2b 96       	adiw	r28, 0x0b	; 11
     a12:	0f b6       	in	r0, 0x3f	; 63
     a14:	f8 94       	cli
     a16:	de bf       	out	0x3e, r29	; 62
     a18:	0f be       	out	0x3f, r0	; 63
     a1a:	cd bf       	out	0x3d, r28	; 61
     a1c:	df 91       	pop	r29
     a1e:	cf 91       	pop	r28
     a20:	1f 91       	pop	r17
     a22:	0f 91       	pop	r16
     a24:	ff 90       	pop	r15
     a26:	ef 90       	pop	r14
     a28:	df 90       	pop	r13
     a2a:	cf 90       	pop	r12
     a2c:	bf 90       	pop	r11
     a2e:	af 90       	pop	r10
     a30:	9f 90       	pop	r9
     a32:	8f 90       	pop	r8
     a34:	7f 90       	pop	r7
     a36:	6f 90       	pop	r6
     a38:	5f 90       	pop	r5
     a3a:	4f 90       	pop	r4
     a3c:	3f 90       	pop	r3
     a3e:	2f 90       	pop	r2
     a40:	08 95       	ret

00000a42 <putval>:
     a42:	20 fd       	sbrc	r18, 0
     a44:	09 c0       	rjmp	.+18     	; 0xa58 <putval+0x16>
     a46:	fc 01       	movw	r30, r24
     a48:	23 fd       	sbrc	r18, 3
     a4a:	05 c0       	rjmp	.+10     	; 0xa56 <putval+0x14>
     a4c:	22 ff       	sbrs	r18, 2
     a4e:	02 c0       	rjmp	.+4      	; 0xa54 <putval+0x12>
     a50:	73 83       	std	Z+3, r23	; 0x03
     a52:	62 83       	std	Z+2, r22	; 0x02
     a54:	51 83       	std	Z+1, r21	; 0x01
     a56:	40 83       	st	Z, r20
     a58:	08 95       	ret

00000a5a <mulacc>:
     a5a:	44 fd       	sbrc	r20, 4
     a5c:	17 c0       	rjmp	.+46     	; 0xa8c <mulacc+0x32>
     a5e:	46 fd       	sbrc	r20, 6
     a60:	17 c0       	rjmp	.+46     	; 0xa90 <mulacc+0x36>
     a62:	ab 01       	movw	r20, r22
     a64:	bc 01       	movw	r22, r24
     a66:	da 01       	movw	r26, r20
     a68:	fb 01       	movw	r30, r22
     a6a:	aa 0f       	add	r26, r26
     a6c:	bb 1f       	adc	r27, r27
     a6e:	ee 1f       	adc	r30, r30
     a70:	ff 1f       	adc	r31, r31
     a72:	10 94       	com	r1
     a74:	d1 f7       	brne	.-12     	; 0xa6a <mulacc+0x10>
     a76:	4a 0f       	add	r20, r26
     a78:	5b 1f       	adc	r21, r27
     a7a:	6e 1f       	adc	r22, r30
     a7c:	7f 1f       	adc	r23, r31
     a7e:	cb 01       	movw	r24, r22
     a80:	ba 01       	movw	r22, r20
     a82:	66 0f       	add	r22, r22
     a84:	77 1f       	adc	r23, r23
     a86:	88 1f       	adc	r24, r24
     a88:	99 1f       	adc	r25, r25
     a8a:	09 c0       	rjmp	.+18     	; 0xa9e <mulacc+0x44>
     a8c:	33 e0       	ldi	r19, 0x03	; 3
     a8e:	01 c0       	rjmp	.+2      	; 0xa92 <mulacc+0x38>
     a90:	34 e0       	ldi	r19, 0x04	; 4
     a92:	66 0f       	add	r22, r22
     a94:	77 1f       	adc	r23, r23
     a96:	88 1f       	adc	r24, r24
     a98:	99 1f       	adc	r25, r25
     a9a:	31 50       	subi	r19, 0x01	; 1
     a9c:	d1 f7       	brne	.-12     	; 0xa92 <mulacc+0x38>
     a9e:	62 0f       	add	r22, r18
     aa0:	71 1d       	adc	r23, r1
     aa2:	81 1d       	adc	r24, r1
     aa4:	91 1d       	adc	r25, r1
     aa6:	08 95       	ret

00000aa8 <skip_spaces>:
     aa8:	0f 93       	push	r16
     aaa:	1f 93       	push	r17
     aac:	cf 93       	push	r28
     aae:	df 93       	push	r29
     ab0:	8c 01       	movw	r16, r24
     ab2:	c8 01       	movw	r24, r16
     ab4:	65 dd       	rcall	.-1334   	; 0x580 <fgetc>
     ab6:	ec 01       	movw	r28, r24
     ab8:	97 fd       	sbrc	r25, 7
     aba:	06 c0       	rjmp	.+12     	; 0xac8 <skip_spaces+0x20>
     abc:	8b d2       	rcall	.+1302   	; 0xfd4 <isspace>
     abe:	89 2b       	or	r24, r25
     ac0:	c1 f7       	brne	.-16     	; 0xab2 <skip_spaces+0xa>
     ac2:	b8 01       	movw	r22, r16
     ac4:	ce 01       	movw	r24, r28
     ac6:	eb d2       	rcall	.+1494   	; 0x109e <ungetc>
     ac8:	ce 01       	movw	r24, r28
     aca:	df 91       	pop	r29
     acc:	cf 91       	pop	r28
     ace:	1f 91       	pop	r17
     ad0:	0f 91       	pop	r16
     ad2:	08 95       	ret

00000ad4 <conv_int>:
     ad4:	8f 92       	push	r8
     ad6:	9f 92       	push	r9
     ad8:	af 92       	push	r10
     ada:	bf 92       	push	r11
     adc:	ef 92       	push	r14
     ade:	ff 92       	push	r15
     ae0:	0f 93       	push	r16
     ae2:	1f 93       	push	r17
     ae4:	cf 93       	push	r28
     ae6:	df 93       	push	r29
     ae8:	8c 01       	movw	r16, r24
     aea:	d6 2f       	mov	r29, r22
     aec:	7a 01       	movw	r14, r20
     aee:	b2 2e       	mov	r11, r18
     af0:	47 dd       	rcall	.-1394   	; 0x580 <fgetc>
     af2:	9c 01       	movw	r18, r24
     af4:	33 27       	eor	r19, r19
     af6:	2b 32       	cpi	r18, 0x2B	; 43
     af8:	31 05       	cpc	r19, r1
     afa:	31 f0       	breq	.+12     	; 0xb08 <conv_int+0x34>
     afc:	2d 32       	cpi	r18, 0x2D	; 45
     afe:	31 05       	cpc	r19, r1
     b00:	59 f4       	brne	.+22     	; 0xb18 <conv_int+0x44>
     b02:	8b 2d       	mov	r24, r11
     b04:	80 68       	ori	r24, 0x80	; 128
     b06:	b8 2e       	mov	r11, r24
     b08:	d1 50       	subi	r29, 0x01	; 1
     b0a:	11 f4       	brne	.+4      	; 0xb10 <conv_int+0x3c>
     b0c:	80 e0       	ldi	r24, 0x00	; 0
     b0e:	61 c0       	rjmp	.+194    	; 0xbd2 <conv_int+0xfe>
     b10:	c8 01       	movw	r24, r16
     b12:	36 dd       	rcall	.-1428   	; 0x580 <fgetc>
     b14:	97 fd       	sbrc	r25, 7
     b16:	fa cf       	rjmp	.-12     	; 0xb0c <conv_int+0x38>
     b18:	cb 2d       	mov	r28, r11
     b1a:	cd 7f       	andi	r28, 0xFD	; 253
     b1c:	2b 2d       	mov	r18, r11
     b1e:	20 73       	andi	r18, 0x30	; 48
     b20:	f9 f4       	brne	.+62     	; 0xb60 <conv_int+0x8c>
     b22:	80 33       	cpi	r24, 0x30	; 48
     b24:	e9 f4       	brne	.+58     	; 0xb60 <conv_int+0x8c>
     b26:	aa 24       	eor	r10, r10
     b28:	aa 94       	dec	r10
     b2a:	ad 0e       	add	r10, r29
     b2c:	09 f4       	brne	.+2      	; 0xb30 <conv_int+0x5c>
     b2e:	3e c0       	rjmp	.+124    	; 0xbac <conv_int+0xd8>
     b30:	c8 01       	movw	r24, r16
     b32:	26 dd       	rcall	.-1460   	; 0x580 <fgetc>
     b34:	97 fd       	sbrc	r25, 7
     b36:	3a c0       	rjmp	.+116    	; 0xbac <conv_int+0xd8>
     b38:	9c 01       	movw	r18, r24
     b3a:	2f 7d       	andi	r18, 0xDF	; 223
     b3c:	33 27       	eor	r19, r19
     b3e:	28 35       	cpi	r18, 0x58	; 88
     b40:	31 05       	cpc	r19, r1
     b42:	41 f4       	brne	.+16     	; 0xb54 <conv_int+0x80>
     b44:	c2 64       	ori	r28, 0x42	; 66
     b46:	d2 50       	subi	r29, 0x02	; 2
     b48:	89 f1       	breq	.+98     	; 0xbac <conv_int+0xd8>
     b4a:	c8 01       	movw	r24, r16
     b4c:	19 dd       	rcall	.-1486   	; 0x580 <fgetc>
     b4e:	97 ff       	sbrs	r25, 7
     b50:	07 c0       	rjmp	.+14     	; 0xb60 <conv_int+0x8c>
     b52:	2c c0       	rjmp	.+88     	; 0xbac <conv_int+0xd8>
     b54:	b6 fe       	sbrs	r11, 6
     b56:	02 c0       	rjmp	.+4      	; 0xb5c <conv_int+0x88>
     b58:	c2 60       	ori	r28, 0x02	; 2
     b5a:	01 c0       	rjmp	.+2      	; 0xb5e <conv_int+0x8a>
     b5c:	c2 61       	ori	r28, 0x12	; 18
     b5e:	da 2d       	mov	r29, r10
     b60:	81 2c       	mov	r8, r1
     b62:	91 2c       	mov	r9, r1
     b64:	54 01       	movw	r10, r8
     b66:	20 ed       	ldi	r18, 0xD0	; 208
     b68:	28 0f       	add	r18, r24
     b6a:	28 30       	cpi	r18, 0x08	; 8
     b6c:	78 f0       	brcs	.+30     	; 0xb8c <conv_int+0xb8>
     b6e:	c4 ff       	sbrs	r28, 4
     b70:	03 c0       	rjmp	.+6      	; 0xb78 <conv_int+0xa4>
     b72:	b8 01       	movw	r22, r16
     b74:	94 d2       	rcall	.+1320   	; 0x109e <ungetc>
     b76:	17 c0       	rjmp	.+46     	; 0xba6 <conv_int+0xd2>
     b78:	2a 30       	cpi	r18, 0x0A	; 10
     b7a:	40 f0       	brcs	.+16     	; 0xb8c <conv_int+0xb8>
     b7c:	c6 ff       	sbrs	r28, 6
     b7e:	f9 cf       	rjmp	.-14     	; 0xb72 <conv_int+0x9e>
     b80:	2f 7d       	andi	r18, 0xDF	; 223
     b82:	3f ee       	ldi	r19, 0xEF	; 239
     b84:	32 0f       	add	r19, r18
     b86:	36 30       	cpi	r19, 0x06	; 6
     b88:	a0 f7       	brcc	.-24     	; 0xb72 <conv_int+0x9e>
     b8a:	27 50       	subi	r18, 0x07	; 7
     b8c:	4c 2f       	mov	r20, r28
     b8e:	c5 01       	movw	r24, r10
     b90:	b4 01       	movw	r22, r8
     b92:	63 df       	rcall	.-314    	; 0xa5a <mulacc>
     b94:	4b 01       	movw	r8, r22
     b96:	5c 01       	movw	r10, r24
     b98:	c2 60       	ori	r28, 0x02	; 2
     b9a:	d1 50       	subi	r29, 0x01	; 1
     b9c:	51 f0       	breq	.+20     	; 0xbb2 <conv_int+0xde>
     b9e:	c8 01       	movw	r24, r16
     ba0:	ef dc       	rcall	.-1570   	; 0x580 <fgetc>
     ba2:	97 ff       	sbrs	r25, 7
     ba4:	e0 cf       	rjmp	.-64     	; 0xb66 <conv_int+0x92>
     ba6:	c1 fd       	sbrc	r28, 1
     ba8:	04 c0       	rjmp	.+8      	; 0xbb2 <conv_int+0xde>
     baa:	b0 cf       	rjmp	.-160    	; 0xb0c <conv_int+0x38>
     bac:	81 2c       	mov	r8, r1
     bae:	91 2c       	mov	r9, r1
     bb0:	54 01       	movw	r10, r8
     bb2:	c7 ff       	sbrs	r28, 7
     bb4:	08 c0       	rjmp	.+16     	; 0xbc6 <conv_int+0xf2>
     bb6:	b0 94       	com	r11
     bb8:	a0 94       	com	r10
     bba:	90 94       	com	r9
     bbc:	80 94       	com	r8
     bbe:	81 1c       	adc	r8, r1
     bc0:	91 1c       	adc	r9, r1
     bc2:	a1 1c       	adc	r10, r1
     bc4:	b1 1c       	adc	r11, r1
     bc6:	2c 2f       	mov	r18, r28
     bc8:	b5 01       	movw	r22, r10
     bca:	a4 01       	movw	r20, r8
     bcc:	c7 01       	movw	r24, r14
     bce:	39 df       	rcall	.-398    	; 0xa42 <putval>
     bd0:	81 e0       	ldi	r24, 0x01	; 1
     bd2:	df 91       	pop	r29
     bd4:	cf 91       	pop	r28
     bd6:	1f 91       	pop	r17
     bd8:	0f 91       	pop	r16
     bda:	ff 90       	pop	r15
     bdc:	ef 90       	pop	r14
     bde:	bf 90       	pop	r11
     be0:	af 90       	pop	r10
     be2:	9f 90       	pop	r9
     be4:	8f 90       	pop	r8
     be6:	08 95       	ret

00000be8 <conv_brk>:
     be8:	5f 92       	push	r5
     bea:	6f 92       	push	r6
     bec:	7f 92       	push	r7
     bee:	8f 92       	push	r8
     bf0:	9f 92       	push	r9
     bf2:	af 92       	push	r10
     bf4:	bf 92       	push	r11
     bf6:	cf 92       	push	r12
     bf8:	df 92       	push	r13
     bfa:	ef 92       	push	r14
     bfc:	ff 92       	push	r15
     bfe:	0f 93       	push	r16
     c00:	1f 93       	push	r17
     c02:	cf 93       	push	r28
     c04:	df 93       	push	r29
     c06:	cd b7       	in	r28, 0x3d	; 61
     c08:	de b7       	in	r29, 0x3e	; 62
     c0a:	a0 97       	sbiw	r28, 0x20	; 32
     c0c:	0f b6       	in	r0, 0x3f	; 63
     c0e:	f8 94       	cli
     c10:	de bf       	out	0x3e, r29	; 62
     c12:	0f be       	out	0x3f, r0	; 63
     c14:	cd bf       	out	0x3d, r28	; 61
     c16:	5c 01       	movw	r10, r24
     c18:	96 2e       	mov	r9, r22
     c1a:	7a 01       	movw	r14, r20
     c1c:	f9 01       	movw	r30, r18
     c1e:	8e 01       	movw	r16, r28
     c20:	0f 5f       	subi	r16, 0xFF	; 255
     c22:	1f 4f       	sbci	r17, 0xFF	; 255
     c24:	68 01       	movw	r12, r16
     c26:	80 e2       	ldi	r24, 0x20	; 32
     c28:	d8 01       	movw	r26, r16
     c2a:	1d 92       	st	X+, r1
     c2c:	8a 95       	dec	r24
     c2e:	e9 f7       	brne	.-6      	; 0xc2a <conv_brk+0x42>
     c30:	d5 01       	movw	r26, r10
     c32:	13 96       	adiw	r26, 0x03	; 3
     c34:	8c 90       	ld	r8, X
     c36:	80 e0       	ldi	r24, 0x00	; 0
     c38:	90 e0       	ldi	r25, 0x00	; 0
     c3a:	61 2c       	mov	r6, r1
     c3c:	71 2c       	mov	r7, r1
     c3e:	30 e0       	ldi	r19, 0x00	; 0
     c40:	61 e0       	ldi	r22, 0x01	; 1
     c42:	70 e0       	ldi	r23, 0x00	; 0
     c44:	83 fc       	sbrc	r8, 3
     c46:	25 91       	lpm	r18, Z+
     c48:	83 fe       	sbrs	r8, 3
     c4a:	21 91       	ld	r18, Z+
     c4c:	8f 01       	movw	r16, r30
     c4e:	52 2e       	mov	r5, r18
     c50:	21 11       	cpse	r18, r1
     c52:	03 c0       	rjmp	.+6      	; 0xc5a <conv_brk+0x72>
     c54:	80 e0       	ldi	r24, 0x00	; 0
     c56:	90 e0       	ldi	r25, 0x00	; 0
     c58:	90 c0       	rjmp	.+288    	; 0xd7a <conv_brk+0x192>
     c5a:	2e 35       	cpi	r18, 0x5E	; 94
     c5c:	11 f4       	brne	.+4      	; 0xc62 <conv_brk+0x7a>
     c5e:	00 97       	sbiw	r24, 0x00	; 0
     c60:	51 f1       	breq	.+84     	; 0xcb6 <conv_brk+0xce>
     c62:	43 2f       	mov	r20, r19
     c64:	50 e0       	ldi	r21, 0x00	; 0
     c66:	48 17       	cp	r20, r24
     c68:	59 07       	cpc	r21, r25
     c6a:	3c f4       	brge	.+14     	; 0xc7a <conv_brk+0x92>
     c6c:	2d 35       	cpi	r18, 0x5D	; 93
     c6e:	59 f1       	breq	.+86     	; 0xcc6 <conv_brk+0xde>
     c70:	2d 32       	cpi	r18, 0x2D	; 45
     c72:	19 f4       	brne	.+6      	; 0xc7a <conv_brk+0x92>
     c74:	77 20       	and	r7, r7
     c76:	09 f1       	breq	.+66     	; 0xcba <conv_brk+0xd2>
     c78:	03 c0       	rjmp	.+6      	; 0xc80 <conv_brk+0x98>
     c7a:	77 20       	and	r7, r7
     c7c:	09 f4       	brne	.+2      	; 0xc80 <conv_brk+0x98>
     c7e:	68 c0       	rjmp	.+208    	; 0xd50 <conv_brk+0x168>
     c80:	45 2d       	mov	r20, r5
     c82:	46 95       	lsr	r20
     c84:	46 95       	lsr	r20
     c86:	46 95       	lsr	r20
     c88:	d6 01       	movw	r26, r12
     c8a:	a4 0f       	add	r26, r20
     c8c:	b1 1d       	adc	r27, r1
     c8e:	45 2d       	mov	r20, r5
     c90:	47 70       	andi	r20, 0x07	; 7
     c92:	8b 01       	movw	r16, r22
     c94:	02 c0       	rjmp	.+4      	; 0xc9a <conv_brk+0xb2>
     c96:	00 0f       	add	r16, r16
     c98:	11 1f       	adc	r17, r17
     c9a:	4a 95       	dec	r20
     c9c:	e2 f7       	brpl	.-8      	; 0xc96 <conv_brk+0xae>
     c9e:	a8 01       	movw	r20, r16
     ca0:	5c 91       	ld	r21, X
     ca2:	45 2b       	or	r20, r21
     ca4:	4c 93       	st	X, r20
     ca6:	65 14       	cp	r6, r5
     ca8:	59 f0       	breq	.+22     	; 0xcc0 <conv_brk+0xd8>
     caa:	56 14       	cp	r5, r6
     cac:	10 f4       	brcc	.+4      	; 0xcb2 <conv_brk+0xca>
     cae:	53 94       	inc	r5
     cb0:	e7 cf       	rjmp	.-50     	; 0xc80 <conv_brk+0x98>
     cb2:	5a 94       	dec	r5
     cb4:	e5 cf       	rjmp	.-54     	; 0xc80 <conv_brk+0x98>
     cb6:	31 e0       	ldi	r19, 0x01	; 1
     cb8:	04 c0       	rjmp	.+8      	; 0xcc2 <conv_brk+0xda>
     cba:	77 24       	eor	r7, r7
     cbc:	73 94       	inc	r7
     cbe:	01 c0       	rjmp	.+2      	; 0xcc2 <conv_brk+0xda>
     cc0:	71 2c       	mov	r7, r1
     cc2:	01 96       	adiw	r24, 0x01	; 1
     cc4:	bf cf       	rjmp	.-130    	; 0xc44 <conv_brk+0x5c>
     cc6:	77 20       	and	r7, r7
     cc8:	19 f0       	breq	.+6      	; 0xcd0 <conv_brk+0xe8>
     cca:	8e 81       	ldd	r24, Y+6	; 0x06
     ccc:	80 62       	ori	r24, 0x20	; 32
     cce:	8e 83       	std	Y+6, r24	; 0x06
     cd0:	31 11       	cpse	r19, r1
     cd2:	03 c0       	rjmp	.+6      	; 0xcda <conv_brk+0xf2>
     cd4:	88 24       	eor	r8, r8
     cd6:	83 94       	inc	r8
     cd8:	17 c0       	rjmp	.+46     	; 0xd08 <conv_brk+0x120>
     cda:	f6 01       	movw	r30, r12
     cdc:	9e 01       	movw	r18, r28
     cde:	2f 5d       	subi	r18, 0xDF	; 223
     ce0:	3f 4f       	sbci	r19, 0xFF	; 255
     ce2:	80 81       	ld	r24, Z
     ce4:	80 95       	com	r24
     ce6:	81 93       	st	Z+, r24
     ce8:	2e 17       	cp	r18, r30
     cea:	3f 07       	cpc	r19, r31
     cec:	d1 f7       	brne	.-12     	; 0xce2 <conv_brk+0xfa>
     cee:	f2 cf       	rjmp	.-28     	; 0xcd4 <conv_brk+0xec>
     cf0:	e1 14       	cp	r14, r1
     cf2:	f1 04       	cpc	r15, r1
     cf4:	29 f0       	breq	.+10     	; 0xd00 <conv_brk+0x118>
     cf6:	d7 01       	movw	r26, r14
     cf8:	8c 93       	st	X, r24
     cfa:	f7 01       	movw	r30, r14
     cfc:	31 96       	adiw	r30, 0x01	; 1
     cfe:	7f 01       	movw	r14, r30
     d00:	9a 94       	dec	r9
     d02:	81 2c       	mov	r8, r1
     d04:	99 20       	and	r9, r9
     d06:	e9 f0       	breq	.+58     	; 0xd42 <conv_brk+0x15a>
     d08:	c5 01       	movw	r24, r10
     d0a:	3a dc       	rcall	.-1932   	; 0x580 <fgetc>
     d0c:	97 fd       	sbrc	r25, 7
     d0e:	17 c0       	rjmp	.+46     	; 0xd3e <conv_brk+0x156>
     d10:	fc 01       	movw	r30, r24
     d12:	ff 27       	eor	r31, r31
     d14:	23 e0       	ldi	r18, 0x03	; 3
     d16:	f5 95       	asr	r31
     d18:	e7 95       	ror	r30
     d1a:	2a 95       	dec	r18
     d1c:	e1 f7       	brne	.-8      	; 0xd16 <conv_brk+0x12e>
     d1e:	ec 0d       	add	r30, r12
     d20:	fd 1d       	adc	r31, r13
     d22:	20 81       	ld	r18, Z
     d24:	30 e0       	ldi	r19, 0x00	; 0
     d26:	ac 01       	movw	r20, r24
     d28:	47 70       	andi	r20, 0x07	; 7
     d2a:	55 27       	eor	r21, r21
     d2c:	02 c0       	rjmp	.+4      	; 0xd32 <conv_brk+0x14a>
     d2e:	35 95       	asr	r19
     d30:	27 95       	ror	r18
     d32:	4a 95       	dec	r20
     d34:	e2 f7       	brpl	.-8      	; 0xd2e <conv_brk+0x146>
     d36:	20 fd       	sbrc	r18, 0
     d38:	db cf       	rjmp	.-74     	; 0xcf0 <conv_brk+0x108>
     d3a:	b5 01       	movw	r22, r10
     d3c:	b0 d1       	rcall	.+864    	; 0x109e <ungetc>
     d3e:	81 10       	cpse	r8, r1
     d40:	89 cf       	rjmp	.-238    	; 0xc54 <conv_brk+0x6c>
     d42:	e1 14       	cp	r14, r1
     d44:	f1 04       	cpc	r15, r1
     d46:	11 f0       	breq	.+4      	; 0xd4c <conv_brk+0x164>
     d48:	d7 01       	movw	r26, r14
     d4a:	1c 92       	st	X, r1
     d4c:	c8 01       	movw	r24, r16
     d4e:	15 c0       	rjmp	.+42     	; 0xd7a <conv_brk+0x192>
     d50:	42 2f       	mov	r20, r18
     d52:	46 95       	lsr	r20
     d54:	46 95       	lsr	r20
     d56:	46 95       	lsr	r20
     d58:	d6 01       	movw	r26, r12
     d5a:	a4 0f       	add	r26, r20
     d5c:	b1 1d       	adc	r27, r1
     d5e:	42 2f       	mov	r20, r18
     d60:	47 70       	andi	r20, 0x07	; 7
     d62:	8b 01       	movw	r16, r22
     d64:	02 c0       	rjmp	.+4      	; 0xd6a <conv_brk+0x182>
     d66:	00 0f       	add	r16, r16
     d68:	11 1f       	adc	r17, r17
     d6a:	4a 95       	dec	r20
     d6c:	e2 f7       	brpl	.-8      	; 0xd66 <conv_brk+0x17e>
     d6e:	a8 01       	movw	r20, r16
     d70:	5c 91       	ld	r21, X
     d72:	45 2b       	or	r20, r21
     d74:	4c 93       	st	X, r20
     d76:	62 2e       	mov	r6, r18
     d78:	a4 cf       	rjmp	.-184    	; 0xcc2 <conv_brk+0xda>
     d7a:	a0 96       	adiw	r28, 0x20	; 32
     d7c:	0f b6       	in	r0, 0x3f	; 63
     d7e:	f8 94       	cli
     d80:	de bf       	out	0x3e, r29	; 62
     d82:	0f be       	out	0x3f, r0	; 63
     d84:	cd bf       	out	0x3d, r28	; 61
     d86:	df 91       	pop	r29
     d88:	cf 91       	pop	r28
     d8a:	1f 91       	pop	r17
     d8c:	0f 91       	pop	r16
     d8e:	ff 90       	pop	r15
     d90:	ef 90       	pop	r14
     d92:	df 90       	pop	r13
     d94:	cf 90       	pop	r12
     d96:	bf 90       	pop	r11
     d98:	af 90       	pop	r10
     d9a:	9f 90       	pop	r9
     d9c:	8f 90       	pop	r8
     d9e:	7f 90       	pop	r7
     da0:	6f 90       	pop	r6
     da2:	5f 90       	pop	r5
     da4:	08 95       	ret

00000da6 <vfscanf>:
     da6:	5f 92       	push	r5
     da8:	6f 92       	push	r6
     daa:	7f 92       	push	r7
     dac:	8f 92       	push	r8
     dae:	9f 92       	push	r9
     db0:	af 92       	push	r10
     db2:	bf 92       	push	r11
     db4:	cf 92       	push	r12
     db6:	df 92       	push	r13
     db8:	ef 92       	push	r14
     dba:	ff 92       	push	r15
     dbc:	0f 93       	push	r16
     dbe:	1f 93       	push	r17
     dc0:	cf 93       	push	r28
     dc2:	df 93       	push	r29
     dc4:	6c 01       	movw	r12, r24
     dc6:	eb 01       	movw	r28, r22
     dc8:	5a 01       	movw	r10, r20
     dca:	fc 01       	movw	r30, r24
     dcc:	17 82       	std	Z+7, r1	; 0x07
     dce:	16 82       	std	Z+6, r1	; 0x06
     dd0:	51 2c       	mov	r5, r1
     dd2:	f6 01       	movw	r30, r12
     dd4:	e3 80       	ldd	r14, Z+3	; 0x03
     dd6:	fe 01       	movw	r30, r28
     dd8:	e3 fc       	sbrc	r14, 3
     dda:	85 91       	lpm	r24, Z+
     ddc:	e3 fe       	sbrs	r14, 3
     dde:	81 91       	ld	r24, Z+
     de0:	18 2f       	mov	r17, r24
     de2:	ef 01       	movw	r28, r30
     de4:	88 23       	and	r24, r24
     de6:	09 f4       	brne	.+2      	; 0xdea <vfscanf+0x44>
     de8:	e0 c0       	rjmp	.+448    	; 0xfaa <vfscanf+0x204>
     dea:	90 e0       	ldi	r25, 0x00	; 0
     dec:	f3 d0       	rcall	.+486    	; 0xfd4 <isspace>
     dee:	89 2b       	or	r24, r25
     df0:	19 f0       	breq	.+6      	; 0xdf8 <vfscanf+0x52>
     df2:	c6 01       	movw	r24, r12
     df4:	59 de       	rcall	.-846    	; 0xaa8 <skip_spaces>
     df6:	ed cf       	rjmp	.-38     	; 0xdd2 <vfscanf+0x2c>
     df8:	15 32       	cpi	r17, 0x25	; 37
     dfa:	41 f4       	brne	.+16     	; 0xe0c <vfscanf+0x66>
     dfc:	fe 01       	movw	r30, r28
     dfe:	e3 fc       	sbrc	r14, 3
     e00:	15 91       	lpm	r17, Z+
     e02:	e3 fe       	sbrs	r14, 3
     e04:	11 91       	ld	r17, Z+
     e06:	ef 01       	movw	r28, r30
     e08:	15 32       	cpi	r17, 0x25	; 37
     e0a:	71 f4       	brne	.+28     	; 0xe28 <vfscanf+0x82>
     e0c:	c6 01       	movw	r24, r12
     e0e:	b8 db       	rcall	.-2192   	; 0x580 <fgetc>
     e10:	97 fd       	sbrc	r25, 7
     e12:	c9 c0       	rjmp	.+402    	; 0xfa6 <vfscanf+0x200>
     e14:	41 2f       	mov	r20, r17
     e16:	50 e0       	ldi	r21, 0x00	; 0
     e18:	9c 01       	movw	r18, r24
     e1a:	33 27       	eor	r19, r19
     e1c:	24 17       	cp	r18, r20
     e1e:	35 07       	cpc	r19, r21
     e20:	c1 f2       	breq	.-80     	; 0xdd2 <vfscanf+0x2c>
     e22:	b6 01       	movw	r22, r12
     e24:	3c d1       	rcall	.+632    	; 0x109e <ungetc>
     e26:	c1 c0       	rjmp	.+386    	; 0xfaa <vfscanf+0x204>
     e28:	1a 32       	cpi	r17, 0x2A	; 42
     e2a:	39 f4       	brne	.+14     	; 0xe3a <vfscanf+0x94>
     e2c:	e3 fc       	sbrc	r14, 3
     e2e:	15 91       	lpm	r17, Z+
     e30:	e3 fe       	sbrs	r14, 3
     e32:	11 91       	ld	r17, Z+
     e34:	ef 01       	movw	r28, r30
     e36:	01 e0       	ldi	r16, 0x01	; 1
     e38:	01 c0       	rjmp	.+2      	; 0xe3c <vfscanf+0x96>
     e3a:	00 e0       	ldi	r16, 0x00	; 0
     e3c:	f1 2c       	mov	r15, r1
     e3e:	20 ed       	ldi	r18, 0xD0	; 208
     e40:	21 0f       	add	r18, r17
     e42:	2a 30       	cpi	r18, 0x0A	; 10
     e44:	78 f4       	brcc	.+30     	; 0xe64 <vfscanf+0xbe>
     e46:	02 60       	ori	r16, 0x02	; 2
     e48:	6f 2d       	mov	r22, r15
     e4a:	70 e0       	ldi	r23, 0x00	; 0
     e4c:	80 e0       	ldi	r24, 0x00	; 0
     e4e:	90 e0       	ldi	r25, 0x00	; 0
     e50:	40 e2       	ldi	r20, 0x20	; 32
     e52:	03 de       	rcall	.-1018   	; 0xa5a <mulacc>
     e54:	f6 2e       	mov	r15, r22
     e56:	fe 01       	movw	r30, r28
     e58:	e3 fc       	sbrc	r14, 3
     e5a:	15 91       	lpm	r17, Z+
     e5c:	e3 fe       	sbrs	r14, 3
     e5e:	11 91       	ld	r17, Z+
     e60:	ef 01       	movw	r28, r30
     e62:	ed cf       	rjmp	.-38     	; 0xe3e <vfscanf+0x98>
     e64:	01 ff       	sbrs	r16, 1
     e66:	03 c0       	rjmp	.+6      	; 0xe6e <vfscanf+0xc8>
     e68:	f1 10       	cpse	r15, r1
     e6a:	03 c0       	rjmp	.+6      	; 0xe72 <vfscanf+0xcc>
     e6c:	9e c0       	rjmp	.+316    	; 0xfaa <vfscanf+0x204>
     e6e:	ff 24       	eor	r15, r15
     e70:	fa 94       	dec	r15
     e72:	18 36       	cpi	r17, 0x68	; 104
     e74:	19 f0       	breq	.+6      	; 0xe7c <vfscanf+0xd6>
     e76:	1c 36       	cpi	r17, 0x6C	; 108
     e78:	51 f0       	breq	.+20     	; 0xe8e <vfscanf+0xe8>
     e7a:	10 c0       	rjmp	.+32     	; 0xe9c <vfscanf+0xf6>
     e7c:	fe 01       	movw	r30, r28
     e7e:	e3 fc       	sbrc	r14, 3
     e80:	15 91       	lpm	r17, Z+
     e82:	e3 fe       	sbrs	r14, 3
     e84:	11 91       	ld	r17, Z+
     e86:	ef 01       	movw	r28, r30
     e88:	18 36       	cpi	r17, 0x68	; 104
     e8a:	41 f4       	brne	.+16     	; 0xe9c <vfscanf+0xf6>
     e8c:	08 60       	ori	r16, 0x08	; 8
     e8e:	04 60       	ori	r16, 0x04	; 4
     e90:	fe 01       	movw	r30, r28
     e92:	e3 fc       	sbrc	r14, 3
     e94:	15 91       	lpm	r17, Z+
     e96:	e3 fe       	sbrs	r14, 3
     e98:	11 91       	ld	r17, Z+
     e9a:	ef 01       	movw	r28, r30
     e9c:	11 23       	and	r17, r17
     e9e:	09 f4       	brne	.+2      	; 0xea2 <vfscanf+0xfc>
     ea0:	84 c0       	rjmp	.+264    	; 0xfaa <vfscanf+0x204>
     ea2:	61 2f       	mov	r22, r17
     ea4:	70 e0       	ldi	r23, 0x00	; 0
     ea6:	84 ee       	ldi	r24, 0xE4	; 228
     ea8:	90 e0       	ldi	r25, 0x00	; 0
     eaa:	9c d0       	rcall	.+312    	; 0xfe4 <strchr_P>
     eac:	89 2b       	or	r24, r25
     eae:	09 f4       	brne	.+2      	; 0xeb2 <vfscanf+0x10c>
     eb0:	7c c0       	rjmp	.+248    	; 0xfaa <vfscanf+0x204>
     eb2:	00 fd       	sbrc	r16, 0
     eb4:	07 c0       	rjmp	.+14     	; 0xec4 <vfscanf+0x11e>
     eb6:	f5 01       	movw	r30, r10
     eb8:	80 80       	ld	r8, Z
     eba:	91 80       	ldd	r9, Z+1	; 0x01
     ebc:	c5 01       	movw	r24, r10
     ebe:	02 96       	adiw	r24, 0x02	; 2
     ec0:	5c 01       	movw	r10, r24
     ec2:	02 c0       	rjmp	.+4      	; 0xec8 <vfscanf+0x122>
     ec4:	81 2c       	mov	r8, r1
     ec6:	91 2c       	mov	r9, r1
     ec8:	1e 36       	cpi	r17, 0x6E	; 110
     eca:	49 f4       	brne	.+18     	; 0xede <vfscanf+0x138>
     ecc:	f6 01       	movw	r30, r12
     ece:	46 81       	ldd	r20, Z+6	; 0x06
     ed0:	57 81       	ldd	r21, Z+7	; 0x07
     ed2:	60 e0       	ldi	r22, 0x00	; 0
     ed4:	70 e0       	ldi	r23, 0x00	; 0
     ed6:	20 2f       	mov	r18, r16
     ed8:	c4 01       	movw	r24, r8
     eda:	b3 dd       	rcall	.-1178   	; 0xa42 <putval>
     edc:	7a cf       	rjmp	.-268    	; 0xdd2 <vfscanf+0x2c>
     ede:	13 36       	cpi	r17, 0x63	; 99
     ee0:	a1 f4       	brne	.+40     	; 0xf0a <vfscanf+0x164>
     ee2:	01 fd       	sbrc	r16, 1
     ee4:	02 c0       	rjmp	.+4      	; 0xeea <vfscanf+0x144>
     ee6:	ff 24       	eor	r15, r15
     ee8:	f3 94       	inc	r15
     eea:	c6 01       	movw	r24, r12
     eec:	49 db       	rcall	.-2414   	; 0x580 <fgetc>
     eee:	97 fd       	sbrc	r25, 7
     ef0:	5a c0       	rjmp	.+180    	; 0xfa6 <vfscanf+0x200>
     ef2:	81 14       	cp	r8, r1
     ef4:	91 04       	cpc	r9, r1
     ef6:	29 f0       	breq	.+10     	; 0xf02 <vfscanf+0x15c>
     ef8:	f4 01       	movw	r30, r8
     efa:	80 83       	st	Z, r24
     efc:	c4 01       	movw	r24, r8
     efe:	01 96       	adiw	r24, 0x01	; 1
     f00:	4c 01       	movw	r8, r24
     f02:	fa 94       	dec	r15
     f04:	f1 10       	cpse	r15, r1
     f06:	f1 cf       	rjmp	.-30     	; 0xeea <vfscanf+0x144>
     f08:	4a c0       	rjmp	.+148    	; 0xf9e <vfscanf+0x1f8>
     f0a:	1b 35       	cpi	r17, 0x5B	; 91
     f0c:	51 f4       	brne	.+20     	; 0xf22 <vfscanf+0x17c>
     f0e:	9e 01       	movw	r18, r28
     f10:	a4 01       	movw	r20, r8
     f12:	6f 2d       	mov	r22, r15
     f14:	c6 01       	movw	r24, r12
     f16:	68 de       	rcall	.-816    	; 0xbe8 <conv_brk>
     f18:	ec 01       	movw	r28, r24
     f1a:	89 2b       	or	r24, r25
     f1c:	09 f0       	breq	.+2      	; 0xf20 <vfscanf+0x17a>
     f1e:	3f c0       	rjmp	.+126    	; 0xf9e <vfscanf+0x1f8>
     f20:	39 c0       	rjmp	.+114    	; 0xf94 <vfscanf+0x1ee>
     f22:	c6 01       	movw	r24, r12
     f24:	c1 dd       	rcall	.-1150   	; 0xaa8 <skip_spaces>
     f26:	97 fd       	sbrc	r25, 7
     f28:	3e c0       	rjmp	.+124    	; 0xfa6 <vfscanf+0x200>
     f2a:	1f 36       	cpi	r17, 0x6F	; 111
     f2c:	49 f1       	breq	.+82     	; 0xf80 <vfscanf+0x1da>
     f2e:	28 f4       	brcc	.+10     	; 0xf3a <vfscanf+0x194>
     f30:	14 36       	cpi	r17, 0x64	; 100
     f32:	21 f1       	breq	.+72     	; 0xf7c <vfscanf+0x1d6>
     f34:	19 36       	cpi	r17, 0x69	; 105
     f36:	39 f1       	breq	.+78     	; 0xf86 <vfscanf+0x1e0>
     f38:	25 c0       	rjmp	.+74     	; 0xf84 <vfscanf+0x1de>
     f3a:	13 37       	cpi	r17, 0x73	; 115
     f3c:	71 f0       	breq	.+28     	; 0xf5a <vfscanf+0x1b4>
     f3e:	15 37       	cpi	r17, 0x75	; 117
     f40:	e9 f0       	breq	.+58     	; 0xf7c <vfscanf+0x1d6>
     f42:	20 c0       	rjmp	.+64     	; 0xf84 <vfscanf+0x1de>
     f44:	81 14       	cp	r8, r1
     f46:	91 04       	cpc	r9, r1
     f48:	29 f0       	breq	.+10     	; 0xf54 <vfscanf+0x1ae>
     f4a:	f4 01       	movw	r30, r8
     f4c:	60 82       	st	Z, r6
     f4e:	c4 01       	movw	r24, r8
     f50:	01 96       	adiw	r24, 0x01	; 1
     f52:	4c 01       	movw	r8, r24
     f54:	fa 94       	dec	r15
     f56:	ff 20       	and	r15, r15
     f58:	59 f0       	breq	.+22     	; 0xf70 <vfscanf+0x1ca>
     f5a:	c6 01       	movw	r24, r12
     f5c:	11 db       	rcall	.-2526   	; 0x580 <fgetc>
     f5e:	3c 01       	movw	r6, r24
     f60:	97 fd       	sbrc	r25, 7
     f62:	06 c0       	rjmp	.+12     	; 0xf70 <vfscanf+0x1ca>
     f64:	37 d0       	rcall	.+110    	; 0xfd4 <isspace>
     f66:	89 2b       	or	r24, r25
     f68:	69 f3       	breq	.-38     	; 0xf44 <vfscanf+0x19e>
     f6a:	b6 01       	movw	r22, r12
     f6c:	c3 01       	movw	r24, r6
     f6e:	97 d0       	rcall	.+302    	; 0x109e <ungetc>
     f70:	81 14       	cp	r8, r1
     f72:	91 04       	cpc	r9, r1
     f74:	a1 f0       	breq	.+40     	; 0xf9e <vfscanf+0x1f8>
     f76:	f4 01       	movw	r30, r8
     f78:	10 82       	st	Z, r1
     f7a:	11 c0       	rjmp	.+34     	; 0xf9e <vfscanf+0x1f8>
     f7c:	00 62       	ori	r16, 0x20	; 32
     f7e:	03 c0       	rjmp	.+6      	; 0xf86 <vfscanf+0x1e0>
     f80:	00 61       	ori	r16, 0x10	; 16
     f82:	01 c0       	rjmp	.+2      	; 0xf86 <vfscanf+0x1e0>
     f84:	00 64       	ori	r16, 0x40	; 64
     f86:	20 2f       	mov	r18, r16
     f88:	a4 01       	movw	r20, r8
     f8a:	6f 2d       	mov	r22, r15
     f8c:	c6 01       	movw	r24, r12
     f8e:	a2 dd       	rcall	.-1212   	; 0xad4 <conv_int>
     f90:	81 11       	cpse	r24, r1
     f92:	05 c0       	rjmp	.+10     	; 0xf9e <vfscanf+0x1f8>
     f94:	f6 01       	movw	r30, r12
     f96:	83 81       	ldd	r24, Z+3	; 0x03
     f98:	80 73       	andi	r24, 0x30	; 48
     f9a:	29 f4       	brne	.+10     	; 0xfa6 <vfscanf+0x200>
     f9c:	06 c0       	rjmp	.+12     	; 0xfaa <vfscanf+0x204>
     f9e:	00 fd       	sbrc	r16, 0
     fa0:	18 cf       	rjmp	.-464    	; 0xdd2 <vfscanf+0x2c>
     fa2:	53 94       	inc	r5
     fa4:	16 cf       	rjmp	.-468    	; 0xdd2 <vfscanf+0x2c>
     fa6:	55 20       	and	r5, r5
     fa8:	19 f0       	breq	.+6      	; 0xfb0 <vfscanf+0x20a>
     faa:	85 2d       	mov	r24, r5
     fac:	90 e0       	ldi	r25, 0x00	; 0
     fae:	02 c0       	rjmp	.+4      	; 0xfb4 <vfscanf+0x20e>
     fb0:	8f ef       	ldi	r24, 0xFF	; 255
     fb2:	9f ef       	ldi	r25, 0xFF	; 255
     fb4:	df 91       	pop	r29
     fb6:	cf 91       	pop	r28
     fb8:	1f 91       	pop	r17
     fba:	0f 91       	pop	r16
     fbc:	ff 90       	pop	r15
     fbe:	ef 90       	pop	r14
     fc0:	df 90       	pop	r13
     fc2:	cf 90       	pop	r12
     fc4:	bf 90       	pop	r11
     fc6:	af 90       	pop	r10
     fc8:	9f 90       	pop	r9
     fca:	8f 90       	pop	r8
     fcc:	7f 90       	pop	r7
     fce:	6f 90       	pop	r6
     fd0:	5f 90       	pop	r5
     fd2:	08 95       	ret

00000fd4 <isspace>:
     fd4:	91 11       	cpse	r25, r1
     fd6:	da c0       	rjmp	.+436    	; 0x118c <__ctype_isfalse>
     fd8:	80 32       	cpi	r24, 0x20	; 32
     fda:	19 f0       	breq	.+6      	; 0xfe2 <isspace+0xe>
     fdc:	89 50       	subi	r24, 0x09	; 9
     fde:	85 50       	subi	r24, 0x05	; 5
     fe0:	d0 f7       	brcc	.-12     	; 0xfd6 <isspace+0x2>
     fe2:	08 95       	ret

00000fe4 <strchr_P>:
     fe4:	fc 01       	movw	r30, r24
     fe6:	05 90       	lpm	r0, Z+
     fe8:	06 16       	cp	r0, r22
     fea:	21 f0       	breq	.+8      	; 0xff4 <strchr_P+0x10>
     fec:	00 20       	and	r0, r0
     fee:	d9 f7       	brne	.-10     	; 0xfe6 <strchr_P+0x2>
     ff0:	c0 01       	movw	r24, r0
     ff2:	08 95       	ret
     ff4:	31 97       	sbiw	r30, 0x01	; 1
     ff6:	cf 01       	movw	r24, r30
     ff8:	08 95       	ret

00000ffa <strnlen_P>:
     ffa:	fc 01       	movw	r30, r24
     ffc:	05 90       	lpm	r0, Z+
     ffe:	61 50       	subi	r22, 0x01	; 1
    1000:	70 40       	sbci	r23, 0x00	; 0
    1002:	01 10       	cpse	r0, r1
    1004:	d8 f7       	brcc	.-10     	; 0xffc <strnlen_P+0x2>
    1006:	80 95       	com	r24
    1008:	90 95       	com	r25
    100a:	8e 0f       	add	r24, r30
    100c:	9f 1f       	adc	r25, r31
    100e:	08 95       	ret

00001010 <strnlen>:
    1010:	fc 01       	movw	r30, r24
    1012:	61 50       	subi	r22, 0x01	; 1
    1014:	70 40       	sbci	r23, 0x00	; 0
    1016:	01 90       	ld	r0, Z+
    1018:	01 10       	cpse	r0, r1
    101a:	d8 f7       	brcc	.-10     	; 0x1012 <strnlen+0x2>
    101c:	80 95       	com	r24
    101e:	90 95       	com	r25
    1020:	8e 0f       	add	r24, r30
    1022:	9f 1f       	adc	r25, r31
    1024:	08 95       	ret

00001026 <fputc>:
    1026:	0f 93       	push	r16
    1028:	1f 93       	push	r17
    102a:	cf 93       	push	r28
    102c:	df 93       	push	r29
    102e:	fb 01       	movw	r30, r22
    1030:	23 81       	ldd	r18, Z+3	; 0x03
    1032:	21 fd       	sbrc	r18, 1
    1034:	03 c0       	rjmp	.+6      	; 0x103c <fputc+0x16>
    1036:	8f ef       	ldi	r24, 0xFF	; 255
    1038:	9f ef       	ldi	r25, 0xFF	; 255
    103a:	2c c0       	rjmp	.+88     	; 0x1094 <fputc+0x6e>
    103c:	22 ff       	sbrs	r18, 2
    103e:	16 c0       	rjmp	.+44     	; 0x106c <fputc+0x46>
    1040:	46 81       	ldd	r20, Z+6	; 0x06
    1042:	57 81       	ldd	r21, Z+7	; 0x07
    1044:	24 81       	ldd	r18, Z+4	; 0x04
    1046:	35 81       	ldd	r19, Z+5	; 0x05
    1048:	42 17       	cp	r20, r18
    104a:	53 07       	cpc	r21, r19
    104c:	44 f4       	brge	.+16     	; 0x105e <fputc+0x38>
    104e:	a0 81       	ld	r26, Z
    1050:	b1 81       	ldd	r27, Z+1	; 0x01
    1052:	9d 01       	movw	r18, r26
    1054:	2f 5f       	subi	r18, 0xFF	; 255
    1056:	3f 4f       	sbci	r19, 0xFF	; 255
    1058:	31 83       	std	Z+1, r19	; 0x01
    105a:	20 83       	st	Z, r18
    105c:	8c 93       	st	X, r24
    105e:	26 81       	ldd	r18, Z+6	; 0x06
    1060:	37 81       	ldd	r19, Z+7	; 0x07
    1062:	2f 5f       	subi	r18, 0xFF	; 255
    1064:	3f 4f       	sbci	r19, 0xFF	; 255
    1066:	37 83       	std	Z+7, r19	; 0x07
    1068:	26 83       	std	Z+6, r18	; 0x06
    106a:	14 c0       	rjmp	.+40     	; 0x1094 <fputc+0x6e>
    106c:	8b 01       	movw	r16, r22
    106e:	ec 01       	movw	r28, r24
    1070:	fb 01       	movw	r30, r22
    1072:	00 84       	ldd	r0, Z+8	; 0x08
    1074:	f1 85       	ldd	r31, Z+9	; 0x09
    1076:	e0 2d       	mov	r30, r0
    1078:	19 95       	eicall
    107a:	89 2b       	or	r24, r25
    107c:	e1 f6       	brne	.-72     	; 0x1036 <fputc+0x10>
    107e:	d8 01       	movw	r26, r16
    1080:	16 96       	adiw	r26, 0x06	; 6
    1082:	8d 91       	ld	r24, X+
    1084:	9c 91       	ld	r25, X
    1086:	17 97       	sbiw	r26, 0x07	; 7
    1088:	01 96       	adiw	r24, 0x01	; 1
    108a:	17 96       	adiw	r26, 0x07	; 7
    108c:	9c 93       	st	X, r25
    108e:	8e 93       	st	-X, r24
    1090:	16 97       	sbiw	r26, 0x06	; 6
    1092:	ce 01       	movw	r24, r28
    1094:	df 91       	pop	r29
    1096:	cf 91       	pop	r28
    1098:	1f 91       	pop	r17
    109a:	0f 91       	pop	r16
    109c:	08 95       	ret

0000109e <ungetc>:
    109e:	fb 01       	movw	r30, r22
    10a0:	23 81       	ldd	r18, Z+3	; 0x03
    10a2:	20 ff       	sbrs	r18, 0
    10a4:	12 c0       	rjmp	.+36     	; 0x10ca <ungetc+0x2c>
    10a6:	26 fd       	sbrc	r18, 6
    10a8:	10 c0       	rjmp	.+32     	; 0x10ca <ungetc+0x2c>
    10aa:	8f 3f       	cpi	r24, 0xFF	; 255
    10ac:	3f ef       	ldi	r19, 0xFF	; 255
    10ae:	93 07       	cpc	r25, r19
    10b0:	61 f0       	breq	.+24     	; 0x10ca <ungetc+0x2c>
    10b2:	82 83       	std	Z+2, r24	; 0x02
    10b4:	2f 7d       	andi	r18, 0xDF	; 223
    10b6:	20 64       	ori	r18, 0x40	; 64
    10b8:	23 83       	std	Z+3, r18	; 0x03
    10ba:	26 81       	ldd	r18, Z+6	; 0x06
    10bc:	37 81       	ldd	r19, Z+7	; 0x07
    10be:	21 50       	subi	r18, 0x01	; 1
    10c0:	31 09       	sbc	r19, r1
    10c2:	37 83       	std	Z+7, r19	; 0x07
    10c4:	26 83       	std	Z+6, r18	; 0x06
    10c6:	99 27       	eor	r25, r25
    10c8:	08 95       	ret
    10ca:	8f ef       	ldi	r24, 0xFF	; 255
    10cc:	9f ef       	ldi	r25, 0xFF	; 255
    10ce:	08 95       	ret

000010d0 <__ultoa_invert>:
    10d0:	fa 01       	movw	r30, r20
    10d2:	aa 27       	eor	r26, r26
    10d4:	28 30       	cpi	r18, 0x08	; 8
    10d6:	51 f1       	breq	.+84     	; 0x112c <__ultoa_invert+0x5c>
    10d8:	20 31       	cpi	r18, 0x10	; 16
    10da:	81 f1       	breq	.+96     	; 0x113c <__ultoa_invert+0x6c>
    10dc:	e8 94       	clt
    10de:	6f 93       	push	r22
    10e0:	6e 7f       	andi	r22, 0xFE	; 254
    10e2:	6e 5f       	subi	r22, 0xFE	; 254
    10e4:	7f 4f       	sbci	r23, 0xFF	; 255
    10e6:	8f 4f       	sbci	r24, 0xFF	; 255
    10e8:	9f 4f       	sbci	r25, 0xFF	; 255
    10ea:	af 4f       	sbci	r26, 0xFF	; 255
    10ec:	b1 e0       	ldi	r27, 0x01	; 1
    10ee:	3e d0       	rcall	.+124    	; 0x116c <__ultoa_invert+0x9c>
    10f0:	b4 e0       	ldi	r27, 0x04	; 4
    10f2:	3c d0       	rcall	.+120    	; 0x116c <__ultoa_invert+0x9c>
    10f4:	67 0f       	add	r22, r23
    10f6:	78 1f       	adc	r23, r24
    10f8:	89 1f       	adc	r24, r25
    10fa:	9a 1f       	adc	r25, r26
    10fc:	a1 1d       	adc	r26, r1
    10fe:	68 0f       	add	r22, r24
    1100:	79 1f       	adc	r23, r25
    1102:	8a 1f       	adc	r24, r26
    1104:	91 1d       	adc	r25, r1
    1106:	a1 1d       	adc	r26, r1
    1108:	6a 0f       	add	r22, r26
    110a:	71 1d       	adc	r23, r1
    110c:	81 1d       	adc	r24, r1
    110e:	91 1d       	adc	r25, r1
    1110:	a1 1d       	adc	r26, r1
    1112:	20 d0       	rcall	.+64     	; 0x1154 <__ultoa_invert+0x84>
    1114:	09 f4       	brne	.+2      	; 0x1118 <__ultoa_invert+0x48>
    1116:	68 94       	set
    1118:	3f 91       	pop	r19
    111a:	2a e0       	ldi	r18, 0x0A	; 10
    111c:	26 9f       	mul	r18, r22
    111e:	11 24       	eor	r1, r1
    1120:	30 19       	sub	r19, r0
    1122:	30 5d       	subi	r19, 0xD0	; 208
    1124:	31 93       	st	Z+, r19
    1126:	de f6       	brtc	.-74     	; 0x10de <__ultoa_invert+0xe>
    1128:	cf 01       	movw	r24, r30
    112a:	08 95       	ret
    112c:	46 2f       	mov	r20, r22
    112e:	47 70       	andi	r20, 0x07	; 7
    1130:	40 5d       	subi	r20, 0xD0	; 208
    1132:	41 93       	st	Z+, r20
    1134:	b3 e0       	ldi	r27, 0x03	; 3
    1136:	0f d0       	rcall	.+30     	; 0x1156 <__ultoa_invert+0x86>
    1138:	c9 f7       	brne	.-14     	; 0x112c <__ultoa_invert+0x5c>
    113a:	f6 cf       	rjmp	.-20     	; 0x1128 <__ultoa_invert+0x58>
    113c:	46 2f       	mov	r20, r22
    113e:	4f 70       	andi	r20, 0x0F	; 15
    1140:	40 5d       	subi	r20, 0xD0	; 208
    1142:	4a 33       	cpi	r20, 0x3A	; 58
    1144:	18 f0       	brcs	.+6      	; 0x114c <__ultoa_invert+0x7c>
    1146:	49 5d       	subi	r20, 0xD9	; 217
    1148:	31 fd       	sbrc	r19, 1
    114a:	40 52       	subi	r20, 0x20	; 32
    114c:	41 93       	st	Z+, r20
    114e:	02 d0       	rcall	.+4      	; 0x1154 <__ultoa_invert+0x84>
    1150:	a9 f7       	brne	.-22     	; 0x113c <__ultoa_invert+0x6c>
    1152:	ea cf       	rjmp	.-44     	; 0x1128 <__ultoa_invert+0x58>
    1154:	b4 e0       	ldi	r27, 0x04	; 4
    1156:	a6 95       	lsr	r26
    1158:	97 95       	ror	r25
    115a:	87 95       	ror	r24
    115c:	77 95       	ror	r23
    115e:	67 95       	ror	r22
    1160:	ba 95       	dec	r27
    1162:	c9 f7       	brne	.-14     	; 0x1156 <__ultoa_invert+0x86>
    1164:	00 97       	sbiw	r24, 0x00	; 0
    1166:	61 05       	cpc	r22, r1
    1168:	71 05       	cpc	r23, r1
    116a:	08 95       	ret
    116c:	9b 01       	movw	r18, r22
    116e:	ac 01       	movw	r20, r24
    1170:	0a 2e       	mov	r0, r26
    1172:	06 94       	lsr	r0
    1174:	57 95       	ror	r21
    1176:	47 95       	ror	r20
    1178:	37 95       	ror	r19
    117a:	27 95       	ror	r18
    117c:	ba 95       	dec	r27
    117e:	c9 f7       	brne	.-14     	; 0x1172 <__ultoa_invert+0xa2>
    1180:	62 0f       	add	r22, r18
    1182:	73 1f       	adc	r23, r19
    1184:	84 1f       	adc	r24, r20
    1186:	95 1f       	adc	r25, r21
    1188:	a0 1d       	adc	r26, r0
    118a:	08 95       	ret

0000118c <__ctype_isfalse>:
    118c:	99 27       	eor	r25, r25
    118e:	88 27       	eor	r24, r24

00001190 <__ctype_istrue>:
    1190:	08 95       	ret

00001192 <_exit>:
    1192:	f8 94       	cli

00001194 <__stop_program>:
    1194:	ff cf       	rjmp	.-2      	; 0x1194 <__stop_program>
